{
  "_format": "hh-sol-artifact-1",
  "contractName": "IsolatedAccount",
  "sourceName": "src/accounts/IsolatedAccount.sol",
  "abi": [
    {
      "inputs": [
        {
          "internalType": "address",
          "name": "owner_",
          "type": "address"
        },
        {
          "internalType": "address",
          "name": "policyHook_",
          "type": "address"
        }
      ],
      "stateMutability": "nonpayable",
      "type": "constructor"
    },
    {
      "inputs": [
        {
          "internalType": "address",
          "name": "signer",
          "type": "address"
        }
      ],
      "name": "AgentSessionInvalid",
      "type": "error"
    },
    {
      "inputs": [],
      "name": "ECDSAInvalidSignature",
      "type": "error"
    },
    {
      "inputs": [
        {
          "internalType": "uint256",
          "name": "length",
          "type": "uint256"
        }
      ],
      "name": "ECDSAInvalidSignatureLength",
      "type": "error"
    },
    {
      "inputs": [
        {
          "internalType": "bytes32",
          "name": "s",
          "type": "bytes32"
        }
      ],
      "name": "ECDSAInvalidSignatureS",
      "type": "error"
    },
    {
      "inputs": [],
      "name": "InvalidExecutionCalldata",
      "type": "error"
    },
    {
      "inputs": [
        {
          "internalType": "uint256",
          "name": "expected",
          "type": "uint256"
        },
        {
          "internalType": "uint256",
          "name": "got",
          "type": "uint256"
        }
      ],
      "name": "InvalidNonce",
      "type": "error"
    },
    {
      "inputs": [],
      "name": "InvalidShortString",
      "type": "error"
    },
    {
      "inputs": [],
      "name": "InvalidSignature",
      "type": "error"
    },
    {
      "inputs": [
        {
          "internalType": "address",
          "name": "module",
          "type": "address"
        }
      ],
      "name": "ModuleAlreadyInstalled",
      "type": "error"
    },
    {
      "inputs": [
        {
          "internalType": "address",
          "name": "module",
          "type": "address"
        }
      ],
      "name": "ModuleNotInstalled",
      "type": "error"
    },
    {
      "inputs": [
        {
          "internalType": "bytes",
          "name": "revertData",
          "type": "bytes"
        }
      ],
      "name": "PolicyPostCheckFailed",
      "type": "error"
    },
    {
      "inputs": [
        {
          "internalType": "bytes",
          "name": "revertData",
          "type": "bytes"
        }
      ],
      "name": "PolicyPreCheckFailed",
      "type": "error"
    },
    {
      "inputs": [
        {
          "internalType": "uint256",
          "name": "deadline",
          "type": "uint256"
        }
      ],
      "name": "SignatureExpired",
      "type": "error"
    },
    {
      "inputs": [
        {
          "internalType": "string",
          "name": "str",
          "type": "string"
        }
      ],
      "name": "StringTooLong",
      "type": "error"
    },
    {
      "inputs": [
        {
          "internalType": "address",
          "name": "caller",
          "type": "address"
        }
      ],
      "name": "Unauthorized",
      "type": "error"
    },
    {
      "inputs": [
        {
          "internalType": "address",
          "name": "module",
          "type": "address"
        }
      ],
      "name": "UnauthorizedExecutor",
      "type": "error"
    },
    {
      "inputs": [
        {
          "internalType": "bytes1",
          "name": "callType",
          "type": "bytes1"
        }
      ],
      "name": "UnsupportedMode",
      "type": "error"
    },
    {
      "inputs": [],
      "name": "ZeroAddress",
      "type": "error"
    },
    {
      "anonymous": false,
      "inputs": [
        {
          "indexed": true,
          "internalType": "address",
          "name": "validator",
          "type": "address"
        }
      ],
      "name": "AgentSessionValidatorSet",
      "type": "event"
    },
    {
      "anonymous": false,
      "inputs": [],
      "name": "EIP712DomainChanged",
      "type": "event"
    },
    {
      "anonymous": false,
      "inputs": [
        {
          "indexed": true,
          "internalType": "address",
          "name": "target",
          "type": "address"
        },
        {
          "indexed": false,
          "internalType": "uint256",
          "name": "value",
          "type": "uint256"
        },
        {
          "indexed": false,
          "internalType": "bytes4",
          "name": "selector",
          "type": "bytes4"
        },
        {
          "indexed": true,
          "internalType": "uint256",
          "name": "nonce",
          "type": "uint256"
        },
        {
          "indexed": true,
          "internalType": "bytes32",
          "name": "executionHash",
          "type": "bytes32"
        },
        {
          "indexed": false,
          "internalType": "uint256",
          "name": "callIndex",
          "type": "uint256"
        }
      ],
      "name": "Executed",
      "type": "event"
    },
    {
      "anonymous": false,
      "inputs": [
        {
          "indexed": true,
          "internalType": "address",
          "name": "account",
          "type": "address"
        },
        {
          "indexed": true,
          "internalType": "address",
          "name": "signer",
          "type": "address"
        },
        {
          "indexed": true,
          "internalType": "address",
          "name": "caller",
          "type": "address"
        },
        {
          "indexed": false,
          "internalType": "uint256",
          "name": "nonce",
          "type": "uint256"
        },
        {
          "indexed": false,
          "internalType": "bytes32",
          "name": "mode",
          "type": "bytes32"
        },
        {
          "indexed": false,
          "internalType": "uint256",
          "name": "deadline",
          "type": "uint256"
        },
        {
          "indexed": false,
          "internalType": "bytes32",
          "name": "executionHash",
          "type": "bytes32"
        },
        {
          "indexed": false,
          "internalType": "uint256",
          "name": "callCount",
          "type": "uint256"
        },
        {
          "indexed": false,
          "internalType": "bool",
          "name": "policyChecked",
          "type": "bool"
        }
      ],
      "name": "ExecutionEnvelope",
      "type": "event"
    },
    {
      "anonymous": false,
      "inputs": [
        {
          "indexed": true,
          "internalType": "address",
          "name": "module",
          "type": "address"
        },
        {
          "indexed": false,
          "internalType": "bool",
          "name": "isExecutor",
          "type": "bool"
        }
      ],
      "name": "ModuleInstalled",
      "type": "event"
    },
    {
      "anonymous": false,
      "inputs": [
        {
          "indexed": true,
          "internalType": "address",
          "name": "module",
          "type": "address"
        }
      ],
      "name": "ModuleUninstalled",
      "type": "event"
    },
    {
      "anonymous": false,
      "inputs": [
        {
          "indexed": true,
          "internalType": "address",
          "name": "previousOwner",
          "type": "address"
        },
        {
          "indexed": true,
          "internalType": "address",
          "name": "newOwner",
          "type": "address"
        }
      ],
      "name": "OwnershipTransferred",
      "type": "event"
    },
    {
      "anonymous": false,
      "inputs": [
        {
          "indexed": true,
          "internalType": "address",
          "name": "policyHook",
          "type": "address"
        }
      ],
      "name": "PolicyHookSet",
      "type": "event"
    },
    {
      "inputs": [],
      "name": "agentSessionValidator",
      "outputs": [
        {
          "internalType": "address",
          "name": "",
          "type": "address"
        }
      ],
      "stateMutability": "view",
      "type": "function"
    },
    {
      "inputs": [],
      "name": "eip712Domain",
      "outputs": [
        {
          "internalType": "bytes1",
          "name": "fields",
          "type": "bytes1"
        },
        {
          "internalType": "string",
          "name": "name",
          "type": "string"
        },
        {
          "internalType": "string",
          "name": "version",
          "type": "string"
        },
        {
          "internalType": "uint256",
          "name": "chainId",
          "type": "uint256"
        },
        {
          "internalType": "address",
          "name": "verifyingContract",
          "type": "address"
        },
        {
          "internalType": "bytes32",
          "name": "salt",
          "type": "bytes32"
        },
        {
          "internalType": "uint256[]",
          "name": "extensions",
          "type": "uint256[]"
        }
      ],
      "stateMutability": "view",
      "type": "function"
    },
    {
      "inputs": [
        {
          "internalType": "bytes32",
          "name": "mode",
          "type": "bytes32"
        },
        {
          "internalType": "bytes",
          "name": "executionCalldata",
          "type": "bytes"
        }
      ],
      "name": "execute",
      "outputs": [],
      "stateMutability": "payable",
      "type": "function"
    },
    {
      "inputs": [
        {
          "internalType": "bytes32",
          "name": "mode",
          "type": "bytes32"
        },
        {
          "internalType": "bytes",
          "name": "executionCalldata",
          "type": "bytes"
        },
        {
          "internalType": "uint256",
          "name": "signedNonce",
          "type": "uint256"
        },
        {
          "internalType": "uint256",
          "name": "deadline",
          "type": "uint256"
        },
        {
          "internalType": "bytes",
          "name": "signature",
          "type": "bytes"
        }
      ],
      "name": "executeAuthorized",
      "outputs": [
        {
          "internalType": "bytes[]",
          "name": "results",
          "type": "bytes[]"
        }
      ],
      "stateMutability": "payable",
      "type": "function"
    },
    {
      "inputs": [
        {
          "internalType": "bytes32",
          "name": "mode",
          "type": "bytes32"
        },
        {
          "internalType": "bytes",
          "name": "executionCalldata",
          "type": "bytes"
        }
      ],
      "name": "executeFromExecutor",
      "outputs": [
        {
          "internalType": "bytes[]",
          "name": "returnData",
          "type": "bytes[]"
        }
      ],
      "stateMutability": "payable",
      "type": "function"
    },
    {
      "inputs": [
        {
          "internalType": "address",
          "name": "module",
          "type": "address"
        },
        {
          "internalType": "bytes",
          "name": "initData",
          "type": "bytes"
        }
      ],
      "name": "installModule",
      "outputs": [],
      "stateMutability": "nonpayable",
      "type": "function"
    },
    {
      "inputs": [
        {
          "internalType": "address",
          "name": "",
          "type": "address"
        }
      ],
      "name": "isExecutorModule",
      "outputs": [
        {
          "internalType": "bool",
          "name": "",
          "type": "bool"
        }
      ],
      "stateMutability": "view",
      "type": "function"
    },
    {
      "inputs": [
        {
          "internalType": "address",
          "name": "",
          "type": "address"
        }
      ],
      "name": "isModuleInstalled",
      "outputs": [
        {
          "internalType": "bool",
          "name": "",
          "type": "bool"
        }
      ],
      "stateMutability": "view",
      "type": "function"
    },
    {
      "inputs": [],
      "name": "nonce",
      "outputs": [
        {
          "internalType": "uint256",
          "name": "",
          "type": "uint256"
        }
      ],
      "stateMutability": "view",
      "type": "function"
    },
    {
      "inputs": [],
      "name": "owner",
      "outputs": [
        {
          "internalType": "address",
          "name": "",
          "type": "address"
        }
      ],
      "stateMutability": "view",
      "type": "function"
    },
    {
      "inputs": [],
      "name": "policyHook",
      "outputs": [
        {
          "internalType": "address",
          "name": "",
          "type": "address"
        }
      ],
      "stateMutability": "view",
      "type": "function"
    },
    {
      "inputs": [
        {
          "internalType": "address",
          "name": "validator",
          "type": "address"
        }
      ],
      "name": "setAgentSessionValidator",
      "outputs": [],
      "stateMutability": "nonpayable",
      "type": "function"
    },
    {
      "inputs": [
        {
          "internalType": "address",
          "name": "hook",
          "type": "address"
        }
      ],
      "name": "setPolicyHook",
      "outputs": [],
      "stateMutability": "nonpayable",
      "type": "function"
    },
    {
      "inputs": [
        {
          "internalType": "address",
          "name": "newOwner",
          "type": "address"
        }
      ],
      "name": "transferOwnership",
      "outputs": [],
      "stateMutability": "nonpayable",
      "type": "function"
    },
    {
      "inputs": [
        {
          "internalType": "address",
          "name": "module",
          "type": "address"
        },
        {
          "internalType": "bytes",
          "name": "deInitData",
          "type": "bytes"
        }
      ],
      "name": "uninstallModule",
      "outputs": [],
      "stateMutability": "nonpayable",
      "type": "function"
    },
    {
      "stateMutability": "payable",
      "type": "receive"
    }
  ],
  "bytecode": "0x61016080604052346101fb57604081612361803803809161002082856101ff565b8339810103126101fb5761003f602061003883610236565b9201610236565b9060405161004e6040826101ff565b600f815260208101906e125cdbdb185d19591058d8dbdd5b9d608a1b82526040519161007b6040846101ff565b600183526020830191603160f81b83526100948161024a565b610120526100a1846103e0565b61014052519020918260e05251902080610100524660a0526040519060208201927f8b73c3c69bb8fe3d512ecc4cf759cc79239f7b179b0ffacaa9a75d522b39400f8452604083015260608201524660808201523060a082015260a0815261010a60c0826101ff565b5190206080523060c0526001600160a01b03169081156101ec57600280546001600160a01b03199081168417909155600380549091166001600160a01b03929092169182179055604051915f7f8be0079c531659141344cd1fd0a4f28419497f9722a3daafe3b4186f6b6457e08180a37fd2730d56c571c8effcf90410139fb7cb6766fa9419ea7f121628d232adcc8f265f80a2611e489081610519823960805181611b9b015260a05181611c58015260c05181611b65015260e05181611bea01526101005181611c10015261012051816103660152610140518161038f0152f35b63d92e233d60e01b5f5260045ffd5b5f80fd5b601f909101601f19168101906001600160401b0382119082101761022257604052565b634e487b7160e01b5f52604160045260245ffd5b51906001600160a01b03821682036101fb57565b908151602081105f146102c4575090601f815111610284576020815191015160208210610275571790565b5f198260200360031b1b161790565b604460209160405192839163305a27a960e01b83528160048401528051918291826024860152018484015e5f828201840152601f01601f19168101030190fd5b6001600160401b038111610222575f54600181811c911680156103d6575b60208210146103c257601f8111610390575b50602092601f821160011461033157928192935f92610326575b50508160011b915f199060031b1c1916175f5560ff90565b015190505f8061030e565b601f198216935f8052805f20915f5b8681106103785750836001959610610360575b505050811b015f5560ff90565b01515f1960f88460031b161c191690555f8080610353565b91926020600181928685015181550194019201610340565b5f8052601f60205f20910160051c810190601f830160051c015b8181106103b757506102f4565b5f81556001016103aa565b634e487b7160e01b5f52602260045260245ffd5b90607f16906102e2565b908151602081105f1461040b575090601f815111610284576020815191015160208210610275571790565b6001600160401b03811161022257600154600181811c9116801561050e575b60208210146103c257601f81116104db575b50602092601f821160011461047a57928192935f9261046f575b50508160011b915f199060031b1c19161760015560ff90565b015190505f80610456565b601f1982169360015f52805f20915f5b8681106104c357508360019596106104ab575b505050811b0160015560ff90565b01515f1960f88460031b161c191690555f808061049d565b9192602060018192868501518155019401920161048a565b60015f52601f60205f20910160051c810190601f830160051c015b818110610503575061043c565b5f81556001016104f6565b90607f169061042a56fe6080604052600436101561001a575b3615610018575f80fd5b005b5f3560e01c806361b23b7a1461010957806370c109cd1461010457806384b0196e146100ff5780638da5cb5b146100fa5780638da798da146100f55780639b14627d146100f0578063a5432a9f146100eb578063a9c068cf146100e6578063affed0e0146100e1578063d361767e146100dc578063d691c964146100d7578063e6ae8067146100d2578063e9ae5c53146100cd578063f2fde38b146100c85763fdab9ba20361000e57610a42565b6109c9565b61092b565b6108b7565b6107e3565b610715565b6106f8565b610684565b61065c565b610634565b610473565b61044b565b61034e565b6101cc565b610123565b6001600160a01b0381160361011f57565b5f80fd5b3461011f57602036600319011261011f576004356101408161010e565b60018060a01b03165f526007602052602060ff60405f2054166040519015158152f35b9181601f8401121561011f578235916001600160401b03831161011f576020838186019501011161011f57565b90604060031983011261011f576004356101a98161010e565b91602435906001600160401b03821161011f576101c891600401610163565b9091565b3461011f576101da36610190565b600254919290916001600160a01b0316330361030d576001600160a01b0381165f90815260066020526040902061021b90610217905b5460ff1690565b1590565b6102f2576001600160a01b03811692833b1561011f57604051638a91b0e360e01b8152925f9184918291610253919060048401610b1c565b038183875af19081156102ed576102ad9261028a926102d3575b506001600160a01b0381165f908152600660205260409020610294905b805460ff19169055565b6001600160a01b03165f90815260076020526040902090565b7f8542f07efccd0c3cda31b784e4230bb229a0fd4c566cc725db514300e2f6df885f80a2005b806102e15f6102e793610adb565b80610320565b5f61026d565b610b30565b63026d963960e01b5f526001600160a01b031660045260245ffd5b63472511eb60e11b5f523360045260245ffd5b5f91031261011f57565b805180835260209291819084018484015e5f828201840152601f01601f1916010190565b3461011f575f36600319011261011f576103f261038a7f000000000000000000000000000000000000000000000000000000000000000061173c565b6103b37f000000000000000000000000000000000000000000000000000000000000000061181f565b60206040516103c28282610adb565b5f81528161040081830194601f198301368737604051978897600f60f81b895260e0858a015260e089019061032a565b90878203604089015261032a565b914660608701523060808701525f60a087015285830360c087015251918281520192915f5b82811061043457505050500390f35b835185528695509381019392810192600101610425565b3461011f575f36600319011261011f576002546040516001600160a01b039091168152602090f35b3461011f5761048136610190565b6002549192916001600160a01b0316330361030d576001600160a01b038216928315610625576001600160a01b0383165f9081526006602052604090206104c790610210565b61060957833b1561011f576040516306d61fe760e41b8152915f91839182916104f4919060048401610b1c565b038183875af180156102ed576105f5575b5060405163ecd0596160e01b815260026004820152602081602481865afa80156102ed577fa90e32387db790831305e35786fdc1c64cd13beca08ea723d6f890288e6f93689261059a925f926105c4575b506001600160a01b0381165f9081526006602052604090208290610582905b805460ff19166001179055565b61059f575b5060405190151581529081906020820190565b0390a2005b6001600160a01b03165f9081526007602052604090206105be90610575565b5f610587565b6105e791925060203d6020116105ee575b6105df8183610adb565b810190610b5f565b905f610556565b503d6105d5565b806102e15f61060393610adb565b5f610505565b632e21352160e11b5f526001600160a01b03831660045260245ffd5b63d92e233d60e01b5f5260045ffd5b3461011f575f36600319011261011f576004546040516001600160a01b039091168152602090f35b3461011f575f36600319011261011f576003546040516001600160a01b039091168152602090f35b3461011f57602036600319011261011f576004356106a18161010e565b6002546001600160a01b0316330361030d57600380546001600160a01b0319166001600160a01b039290921691821790557fd2730d56c571c8effcf90410139fb7cb6766fa9419ea7f121628d232adcc8f265f80a2005b3461011f575f36600319011261011f576020600554604051908152f35b3461011f57602036600319011261011f576004356107328161010e565b60018060a01b03165f526006602052602060ff60405f2054166040519015158152f35b90604060031983011261011f5760043591602435906001600160401b03821161011f576101c891600401610163565b602081016020825282518091526040820191602060408360051b8301019401925f915b8383106107b657505050505090565b90919293946020806107d4600193603f19868203018752895161032a565b970193019301919392906107a7565b6107ec36610755565b335f52600760205260ff60405f205416156108a4576108a09261088e61089493610817368583610b8e565b602081519101209361082a818386610e75565b60405133917f038271974b5462f7f3ddd8abe5bc7d6c4e4dfc90e7298a4f8051945e99519beb33928061088430948c8c8460a09194935f9360c0830196851984526020840152846040840152606083015260808201520152565b0390a43691610b8e565b906111c3565b60405191829182610784565b0390f35b63170b9abb60e01b5f523360045260245ffd5b3461011f57602036600319011261011f576004356108d48161010e565b6002546001600160a01b0316330361030d57600480546001600160a01b0319166001600160a01b039290921691821790557f70d2ef362d5f4b559a7ca564a79f24a4a8dd4b473effa55123350fea1adae3735f80a2005b61093436610755565b909160018060a01b03600254169182330361030d576100189361088e9161095c368284610b8e565b602081519101209461096f828487610e75565b90604051917f038271974b5462f7f3ddd8abe5bc7d6c4e4dfc90e7298a4f8051945e99519beb33938061088430948c8c8460a09194935f9360c0830196851984526020840152846040840152606083015260808201520152565b3461011f57602036600319011261011f576004356109e68161010e565b600254906001600160a01b038216903382900361030d576001600160a01b0316918215610625576001600160a01b03191682176002557f8be0079c531659141344cd1fd0a4f28419497f9722a3daafe3b4186f6b6457e05f80a3005b60a036600319011261011f576004356024356001600160401b03811161011f57610a70903690600401610163565b9160843591906064356044356001600160401b03851161011f576108a095610a9f610894963690600401610163565b959094610c10565b634e487b7160e01b5f52604160045260245ffd5b606081019081106001600160401b03821117610ad657604052565b610aa7565b90601f801991011681019081106001600160401b03821117610ad657604052565b908060209392818452848401375f828201840152601f01601f1916010190565b916020610b2d938181520191610afc565b90565b6040513d5f823e3d90fd5b6001600160401b038111610ad65760051b60200190565b5190811515820361011f57565b9081602091031261011f57610b2d90610b52565b6001600160401b038111610ad657601f01601f191660200190565b929192610b9a82610b73565b91610ba86040519384610adb565b82948184528183011161011f578281602093845f960137010152565b634e487b7160e01b5f52601160045260245ffd5b9060018201809211610be657565b610bc4565b9060348201809211610be657565b604090610b2d949281528160208201520191610afc565b9293949590919585151580610e6c575b610e5857600554808603610e41575090610cc2610cc892610cba8688610cb2610c4b8d36908b610b8e565b60208151910120610ca48d6040519485936020850197889094939260809260a08301967f983815d6de6c61995fb3b02331a67ac65dc5b81ef15e43b4189006a98647e77a84526020840152604083015260608201520152565b03601f198101835282610adb565b5190206113af565b923691610b8e565b906113d5565b600254610ce5906001600160a01b03165b6001600160a01b031690565b6001600160a01b0382169590861415918280610e2f575b610e1457508180610e01575b610df257610d17368885610b8e565b6020815191012095857f038271974b5462f7f3ddd8abe5bc7d6c4e4dfc90e7298a4f8051945e99519beb84610d4d8b888a610e75565b60408051948552602085018a9052840195909552606083018a9052608083019490945292151560a08201523392309160c090a4610d91610d8c85610bd8565b600555565b610daa57610da490610b2d953691610b8e565b906112d7565b91610b2d9391610da4610dec94610de460405163e9ae5c5360e01b6020820152610ddd81610ca48c868960248501610bf9565b3433611633565b973691610b8e565b916116c5565b638baa579f60e01b5f5260045ffd5b506004546001600160a01b031615610d08565b6333db589d60e01b5f526001600160a01b031660045260245ffd5b50610e3c61021782611474565b610cfc565b6306427aeb60e01b5f52600452602485905260445ffd5b63cd21db4f60e01b5f52600486905260245ffd5b50854211610c20565b9091906001600160f81b0319168015610f9857600160f81b14610e985750505f90565b81019060208183031261011f578035906001600160401b03821161011f570181601f8201121561011f57803590610ece82610b3b565b92610edc6040519485610adb565b82845260208085019360051b8301019181831161011f5760208101935b838510610f095750505050505190565b84356001600160401b03811161011f578201906060828503601f19011261011f5760405191610f3783610abb565b6020810135610f458161010e565b83526040810135602084015260608101356001600160401b03811161011f5760209101019084601f8301121561011f57602092610f888684868096359101610b8e565b6040820152815201940193610ef9565b505050600190565b60408051909190610fb18382610adb565b6001815291601f1901825f5b828110610fc957505050565b806060602080938501015201610fbd565b90610fe482610b3b565b610ff16040519182610adb565b8281528092611002601f1991610b3b565b01905f5b82811061101257505050565b806060602080938501015201611006565b634e487b7160e01b5f52603260045260245ffd5b8051156110445760200190565b611023565b80518210156110445760209160051b010190565b81601f8201121561011f5780519061107482610b73565b926110826040519485610adb565b8284526020838301011161011f57815f9260208093018386015e8301015290565b60208183031261011f578051906001600160401b03821161011f57019080601f8301121561011f578151916110d783610b3b565b926110e56040519485610adb565b80845260208085019160051b8301019183831161011f5760208101915b83831061111157505050505090565b82516001600160401b03811161011f578201906060828703601f19011261011f576040519061113f82610abb565b602083015161114d8161010e565b8252604083015160208301526060830151916001600160401b03831161011f5761117f8860208096958196010161105d565b6040820152815201920191611102565b90926020926034946bffffffffffffffffffffffff199060601b16835260148301528051928391018483015e01015f815290565b6001600160f81b031916919082156112aa57600160f81b83146111fd5763b732147f60e01b5f526001600160f81b0319831660045260245ffd5b611212919250602080825183010191016110a3565b9061121d8251610fda565b915f5b81518110156112a45780611288818561124c61123e60019688611049565b51516001600160a01b031690565b611280602061125b858a611049565b51015191610ca4604061126e878c611049565b5101516040519485936020850161118f565b5f1990611a75565b6112928287611049565b5261129d8186611049565b5001611220565b50505090565b6112b792505f1990611966565b6112bf610fa0565b906112c982611037565b526112d381611037565b5090565b91936001600160f81b0319909216929083156113a157600160f81b84146113155763b732147f60e01b5f526001600160f81b0319841660045260245ffd5b61132b91929350602080825183010191016110a3565b926113368451610fda565b935f5b815181101561139b578061137f81868661135861123e60019789611049565b61137a6020611367868b611049565b51015191610ca4604061126e888d611049565b611a75565b6113898289611049565b526113948188611049565b5001611339565b50505050565b6112b7935093909193611966565b6042906113ba611b62565b906040519161190160f01b8352600283015260228201522090565b610b2d916113e291611c7e565b90929192611cd6565b519065ffffffffffff8216820361011f57565b908160a091031261011f576040519060a082018281106001600160401b03821117610ad65761146c9160809160405280516114388161010e565b8452611446602082016113eb565b6020850152611457604082016113eb565b60408501526060810151606085015201610b52565b608082015290565b6004546001600160a01b0316801561159057611498906001600160a01b0316610cd9565b604051638c8e13b960e01b8152306004820152919060a090839060249082905afa9182156102ed575f9261155f575b5081516001600160a01b0316908115611558576001600160a01b039081169116036115535760808101516115535761151661150b602083015165ffffffffffff1690565b65ffffffffffff1690565b4210611553576040015165ffffffffffff168015159081611540575b5061153c57600190565b5f90565b65ffffffffffff1690504210155f611532565b505f90565b5050505f90565b61158291925060a03d60a011611589575b61157a8183610adb565b8101906113fe565b905f6114c7565b503d611570565b50505f90565b604051906115a5602083610adb565b5f8252565b610b2d939260609260018060a01b031682526020820152816040820152019061032a565b3d156115f8573d906115df82610b73565b916115ed6040519384610adb565b82523d5f602084013e565b606090565b906020610b2d92818152019061032a565b9060208282031261011f5781516001600160401b03811161011f57610b2d920161105d565b6003549192916001600160a01b03169081156116b9575f8094936116738295610ca4604051938492602084019763d68f602560e01b8952602485016115aa565b51925af161167f6115ce565b90156116985780602080610b2d9351830101910161160e565b6040516373b587c360e01b81529081906116b590600483016115fd565b0390fd5b50505050610b2d611596565b6003546001600160a01b0316908115611738575f9182918260405161170681610ca46020820195630b9dfbed60e11b8752602060248401818152019061032a565b51925af16117126115ce565b901561171b5750565b604051632eb1db2d60e11b81529081906116b590600483016115fd565b5050565b60ff811461174d57610b2d90611d52565b506040515f5f548060011c91600182168015611815575b60208410811461180157838552849260208401919081156117e85750600114611795575b50610b2d92500382610adb565b5f80805291507f290decd9548b62a8d60345a988386fc84ba6bc95484008f6362f93160ef3e5635b8483106117d15750610b2d9350015f611788565b8054828401528593506020909201916001016117bd565b60ff1916825250610b2d93151560051b0190505f611788565b634e487b7160e01b5f52602260045260245ffd5b92607f1692611764565b60ff811461183057610b2d90611d52565b506040515f6001548060011c916001821680156118cd575b60208410811461180157838552849260208401919081156117e857506001146118785750610b2d92500382610adb565b60015f90815291507fb10e2d527612073b26eecdfd717e6a320cf44b4afac2b0732d9fcbe2b7fa0cf65b8483106118b65750610b2d9350015f611788565b8054828401528593506020909201916001016118a2565b92607f1692611848565b603319810191908211610be657565b906118f082610b73565b6118fd6040519182610adb565b828152809261190e601f1991610b73565b0190602036910137565b908151811015611044570160200190565b80516020909101516001600160e01b031981169291906004821061194b575050565b6001600160e01b031960049290920360031b82901b16169150565b91906034835110611a6657602083015160601c603484015161198885516118d7565b611991816118e6565b955f5b828110611a2d575050505f8086516020880184865af1946119b36115ce565b9515611a255780517f7fcc11a95d6454b7667353460d3791e5ce17f588379e0c9f3cbcf415f2214201929190600411611a1d576119ef90611929565b905b604080519182526001600160e01b031990921660208201525f9181019190915280606081015b0390a490565b505f906119f1565b855160208701fd5b80611a53611a45611a3f600194610beb565b85611918565b516001600160f81b03191690565b5f1a611a5f828b611918565b5301611994565b6304bc946d60e21b5f5260045ffd5b926034845110611a6657602084015160601c906034850151611a9786516118d7565b611aa0816118e6565b965f5b828110611b3d575050505f8087516020890184875af195611ac26115ce565b9615611b355780517f7fcc11a95d6454b7667353460d3791e5ce17f588379e0c9f3cbcf415f221420193929190600411611b2a57611b02611a1791611929565b925b604051938493846040919493926060820195825263ffffffff60e01b1660208201520152565b50611a175f92611b04565b865160208801fd5b80611b4f611a45611a3f600194610beb565b5f1a611b5b828c611918565b5301611aa3565b307f00000000000000000000000000000000000000000000000000000000000000006001600160a01b03161480611c55575b15611bbd577f000000000000000000000000000000000000000000000000000000000000000090565b60405160208101907f8b73c3c69bb8fe3d512ecc4cf759cc79239f7b179b0ffacaa9a75d522b39400f82527f000000000000000000000000000000000000000000000000000000000000000060408201527f000000000000000000000000000000000000000000000000000000000000000060608201524660808201523060a082015260a08152611c4f60c082610adb565b51902090565b507f00000000000000000000000000000000000000000000000000000000000000004614611b94565b8151919060418303611cae57611ca79250602082015190606060408401519301515f1a90611d90565b9192909190565b50505f9160029190565b60041115611cc257565b634e487b7160e01b5f52602160045260245ffd5b611cdf81611cb8565b80611ce8575050565b611cf181611cb8565b60018103611d085763f645eedf60e01b5f5260045ffd5b611d1181611cb8565b60028103611d2c575063fce698f760e01b5f5260045260245ffd5b80611d38600392611cb8565b14611d405750565b6335e2f38360e21b5f5260045260245ffd5b60ff811690601f8211611d815760405191611d6e604084610adb565b6020808452838101919036833783525290565b632cd44ac360e21b5f5260045ffd5b91907f7fffffffffffffffffffffffffffffff5d576e7357a4501ddfe92f46681b20a08411611e07579160209360809260ff5f9560405194855216868401526040830152606082015282805260015afa156102ed575f516001600160a01b03811615611dfd57905f905f90565b505f906001905f90565b5050505f916003919056fea2646970667358221220da5bfdbc939e9571bcb490c96026529b0c72420d7e8ca8b5d02d682d1404a7df64736f6c634300081b0033",
  "linkReferences": {},
  "deployedLinkReferences": {}
}