{
  "_format": "hh-sol-artifact-1",
  "contractName": "AbstractAccountFactory",
  "sourceName": "src/factory/AbstractAccountFactory.sol",
  "abi": [
    {
      "inputs": [
        {
          "internalType": "address",
          "name": "agent",
          "type": "address"
        },
        {
          "internalType": "address",
          "name": "existingAccount",
          "type": "address"
        }
      ],
      "name": "AgentAlreadyHasWallet",
      "type": "error"
    },
    {
      "inputs": [
        {
          "internalType": "address",
          "name": "agent",
          "type": "address"
        },
        {
          "internalType": "uint256",
          "name": "amount",
          "type": "uint256"
        }
      ],
      "name": "AgentFundingTransferFailed",
      "type": "error"
    },
    {
      "inputs": [
        {
          "internalType": "address",
          "name": "account",
          "type": "address"
        }
      ],
      "name": "AgentSessionValidatorMissing",
      "type": "error"
    },
    {
      "inputs": [
        {
          "internalType": "address",
          "name": "validator",
          "type": "address"
        }
      ],
      "name": "AgentSessionValidatorNotInstalled",
      "type": "error"
    },
    {
      "inputs": [],
      "name": "DeploymentFailed",
      "type": "error"
    },
    {
      "inputs": [],
      "name": "ZeroAgentAddress",
      "type": "error"
    },
    {
      "inputs": [],
      "name": "ZeroModuleAddress",
      "type": "error"
    },
    {
      "anonymous": false,
      "inputs": [
        {
          "indexed": true,
          "internalType": "address",
          "name": "account",
          "type": "address"
        },
        {
          "indexed": true,
          "internalType": "address",
          "name": "owner",
          "type": "address"
        },
        {
          "indexed": false,
          "internalType": "address",
          "name": "deployer",
          "type": "address"
        },
        {
          "indexed": false,
          "internalType": "bytes32",
          "name": "salt",
          "type": "bytes32"
        },
        {
          "indexed": false,
          "internalType": "address",
          "name": "policyHook",
          "type": "address"
        }
      ],
      "name": "AccountDeployed",
      "type": "event"
    },
    {
      "anonymous": false,
      "inputs": [
        {
          "indexed": true,
          "internalType": "address",
          "name": "agent",
          "type": "address"
        },
        {
          "indexed": false,
          "internalType": "uint256",
          "name": "amount",
          "type": "uint256"
        }
      ],
      "name": "AgentFunded",
      "type": "event"
    },
    {
      "anonymous": false,
      "inputs": [
        {
          "indexed": true,
          "internalType": "address",
          "name": "agent",
          "type": "address"
        },
        {
          "indexed": true,
          "internalType": "address",
          "name": "account",
          "type": "address"
        }
      ],
      "name": "AgentWalletBound",
      "type": "event"
    },
    {
      "anonymous": false,
      "inputs": [
        {
          "indexed": true,
          "internalType": "address",
          "name": "account",
          "type": "address"
        },
        {
          "indexed": true,
          "internalType": "address",
          "name": "oldAgent",
          "type": "address"
        },
        {
          "indexed": true,
          "internalType": "address",
          "name": "newAgent",
          "type": "address"
        }
      ],
      "name": "AgentWalletSynced",
      "type": "event"
    },
    {
      "anonymous": false,
      "inputs": [
        {
          "indexed": true,
          "internalType": "address",
          "name": "agent",
          "type": "address"
        },
        {
          "indexed": true,
          "internalType": "address",
          "name": "account",
          "type": "address"
        }
      ],
      "name": "AgentWalletUnbound",
      "type": "event"
    },
    {
      "anonymous": false,
      "inputs": [
        {
          "indexed": true,
          "internalType": "address",
          "name": "user",
          "type": "address"
        },
        {
          "indexed": true,
          "internalType": "address",
          "name": "account",
          "type": "address"
        }
      ],
      "name": "UserWalletBound",
      "type": "event"
    },
    {
      "inputs": [
        {
          "internalType": "bytes32",
          "name": "salt",
          "type": "bytes32"
        },
        {
          "internalType": "address",
          "name": "policyHook",
          "type": "address"
        },
        {
          "components": [
            {
              "internalType": "address",
              "name": "module",
              "type": "address"
            },
            {
              "internalType": "bytes",
              "name": "initData",
              "type": "bytes"
            }
          ],
          "internalType": "struct AbstractAccountFactory.ModuleInit[]",
          "name": "modules",
          "type": "tuple[]"
        },
        {
          "internalType": "address",
          "name": "agent",
          "type": "address"
        },
        {
          "internalType": "address",
          "name": "agentSessionValidator",
          "type": "address"
        }
      ],
      "name": "deployAccount",
      "outputs": [
        {
          "internalType": "address",
          "name": "account",
          "type": "address"
        }
      ],
      "stateMutability": "payable",
      "type": "function"
    },
    {
      "inputs": [
        {
          "internalType": "address",
          "name": "account",
          "type": "address"
        }
      ],
      "name": "getAgentByWallet",
      "outputs": [
        {
          "internalType": "address",
          "name": "agent",
          "type": "address"
        }
      ],
      "stateMutability": "view",
      "type": "function"
    },
    {
      "inputs": [
        {
          "internalType": "address",
          "name": "agent",
          "type": "address"
        }
      ],
      "name": "getWalletByAgent",
      "outputs": [
        {
          "internalType": "address",
          "name": "account",
          "type": "address"
        }
      ],
      "stateMutability": "view",
      "type": "function"
    },
    {
      "inputs": [
        {
          "internalType": "address",
          "name": "user",
          "type": "address"
        }
      ],
      "name": "getWalletByUser",
      "outputs": [
        {
          "internalType": "address",
          "name": "account",
          "type": "address"
        }
      ],
      "stateMutability": "view",
      "type": "function"
    },
    {
      "inputs": [
        {
          "internalType": "address",
          "name": "user",
          "type": "address"
        }
      ],
      "name": "getWalletsByUser",
      "outputs": [
        {
          "internalType": "address[]",
          "name": "accounts",
          "type": "address[]"
        }
      ],
      "stateMutability": "view",
      "type": "function"
    },
    {
      "inputs": [
        {
          "internalType": "bytes32",
          "name": "salt",
          "type": "bytes32"
        },
        {
          "internalType": "address",
          "name": "policyHook",
          "type": "address"
        }
      ],
      "name": "predictAccountAddress",
      "outputs": [
        {
          "internalType": "address",
          "name": "predicted",
          "type": "address"
        }
      ],
      "stateMutability": "view",
      "type": "function"
    },
    {
      "inputs": [],
      "name": "syncAgentWallet",
      "outputs": [],
      "stateMutability": "nonpayable",
      "type": "function"
    }
  ],
  "bytecode": "0x608080604052346015576131d2908161001a8239f35b5f80fdfe60806040526004361015610011575f80fd5b5f3560e01c8063054eb1b5146100845780632461cccc1461007f5780637478c8901461007a57806385f8dd8d1461007557806392623415146100705780639525b1921461006b57639bb6fe3d14610066575f80fd5b6103c3565b610344565b61032a565b6102dd565b610253565b6101d8565b346101a75760403660031901126101a7576101a361018961017d6004356100fe61016e6024356100b3816101ab565b6100fe6101266100fe61010c612361946100cf60208701610440565b95808752610e3c6020880139604080513060208201526001600160a01b03909216908201529182906060820190565b03601f198101835282610419565b60405192839161012060208401809761044e565b9061044e565b5190206040516001600160f81b0319602082019081523060601b6bffffffffffffffffffffffff19166021830152603582019590955260558101919091529182906075820190565b5190206001600160a01b031690565b6001600160a01b031690565b6040516001600160a01b0390911681529081906020820190565b0390f35b5f80fd5b6001600160a01b038116036101a757565b606435906101c9826101ab565b565b608435906101c9826101ab565b346101a75760203660031901126101a75760206101ff6004356101fa816101ab565b61048e565b6040516001600160a01b039091168152f35b60206040818301928281528451809452019201905f5b8181106102345750505090565b82516001600160a01b0316845260209384019390920191600101610227565b346101a75760203660031901126101a757600435610270816101ab565b60018060a01b03165f52600160205260405f206040519081602082549182815201915f5260205f20905f5b8181106102be576101a3856102b281870382610419565b60405191829182610211565b82546001600160a01b031684526020909301926001928301920161029b565b346101a75760203660031901126101a7576004356102fa816101ab565b60018060a01b03165f526002602052602060018060a01b0360405f205416604051908152f35b5f9103126101a757565b346101a7575f3660031901126101a7576103426105b5565b005b60a03660031901126101a75760243560043561035f826101ab565b60443567ffffffffffffffff81116101a757366023820112156101a75780600401359267ffffffffffffffff84116101a7573660248560051b840101116101a7576101a393610189936103b06101bc565b9260246103bb6101cb565b9501916109b3565b346101a75760203660031901126101a7576004356103e0816101ab565b6001600160a01b039081165f9081526020818152604091829020549151919092168152f35b634e487b7160e01b5f52604160045260245ffd5b90601f8019910116810190811067ffffffffffffffff82111761043b57604052565b610405565b906101c96040519283610419565b805191908290602001825e015f815290565b634e487b7160e01b5f52603260045260245ffd5b8054821015610489575f5260205f2001905f90565b610460565b6001600160a01b03165f818152600160205260409020549081156104f5575f52600160205260405f20905f1981019081116104e1576104cc91610474565b905460039190911b1c6001600160a01b031690565b634e487b7160e01b5f52601160045260245ffd5b50505f90565b908160209103126101a75751610510816101ab565b90565b6040513d5f823e3d90fd5b519065ffffffffffff821682036101a757565b519081151582036101a757565b908160a09103126101a7576040519060a0820182811067ffffffffffffffff82111761043b576105ad916080916040528051610579816101ab565b84526105876020820161051e565b60208501526105986040820161051e565b60408501526060810151606085015201610531565b608082015290565b604051639b14627d60e01b8152602081600481335afa90811561083f575f91610857575b506001600160a01b0316801561084457604051638c8e13b960e01b81523360048201529060a090829060249082905afa90811561083f575f91610810575b5060808101511561080157505f5b335f908152600260205260409020610645905b546001600160a01b031690565b6001600160a01b0382811692908216918284146107fb57821515806107cf575b61077f575b50826106cb575b335f9081526002602052604090206106a491905b80546001600160a01b0319166001600160a01b03909216919091179055565b337fab6c4386164aefed619b581da38c8f5e16983b3bc12a6145e03a164032e24b065f80a4565b6001600160a01b0381165f9081526020819052604090206106eb90610638565b6001600160a01b0381168015159081610774575b5061075357506106a490610726336106858360018060a01b03165f525f60205260405f2090565b33847f16f8473c77294faa8396e68254ea4a7adcbc796a0e7260ec5ad2ab8a289273115f80a39050610671565b63297350bb60e01b5f526001600160a01b039182166004521660245260445ffd5b90503314155f6106ff565b6001600160a01b03165f90815260208190526040902080546001600160a01b031916905533827f2c1f593bde93018bccda2c02d767b2453f3e07c3a53802ae4ae02c3969bb66205f80a35f61066a565b506001600160a01b038181165f9081526020819052604090203391906107f490610638565b1614610665565b50505050565b516001600160a01b0316610625565b610832915060a03d60a011610838575b61082a8183610419565b81019061053e565b5f610617565b503d610820565b610513565b6365e7c42960e01b5f523360045260245ffd5b610879915060203d60201161087f575b6108718183610419565b8101906104fb565b5f6105d9565b503d610867565b91908110156104895760051b81013590603e19813603018212156101a7570190565b35610510816101ab565b903590601e19813603018212156101a7570180359067ffffffffffffffff82116101a7576020019181360383136101a757565b9192606093819260018060a01b0316845260406020850152816040850152848401375f828201840152601f01601f1916010190565b908160209103126101a75761051090610531565b80546801000000000000000081101561043b5761095091600182018155610474565b81546001600160a01b0393841660039290921b91821b9390911b1916919091179055565b3d156109ae573d9067ffffffffffffffff821161043b57604051916109a3601f8201601f191660200184610419565b82523d5f602084013e565b606090565b939594919390926001600160a01b03871692908315610e2c576001600160a01b0388165f9081526020819052604090206109ec90610638565b6001600160a01b038116610e0b5750610a5a83612361610a0e60208201610440565b90808252610e3c6020830139604080513060208201526001600160a01b038a1691810191909152610a6890610a4681606081016100fe565b60405194859161012060208401809661044e565b03601f198101855284610419565b91516001600160a01b03925ff516958615610dfc575f5b828110610d52575050506001600160a01b038116610c82575b50833b156101a75760405163f2fde38b60e01b8152336004820152925f8460248183895af193841561083f578594610c68575b508396610aeb856106858360018060a01b03165f525f60205260405f2090565b6001600160a01b0385165f908152600260205260409020610b0d908290610685565b335f908152600160205260409020610b2690869061092e565b34610bc4575b50604080513380825260208201949094526001600160a01b039092169082015283907fedc5bf4254fe8b113712e3aea7713d913b04e918749d01f6c997e506a41715159080606081015b0390a37f16f8473c77294faa8396e68254ea4a7adcbc796a0e7260ec5ad2ab8a289273115f80a3337fe3b133fd84c60e2e0a1afd20a13975a98357b547b6e202b5c1530016697e26455f80a3565b90919293505f80808034855af1610bd9610974565b5015610c49575090837fedc5bf4254fe8b113712e3aea7713d913b04e918749d01f6c997e506a4171515610b76859483967f1a325fd86785b579f3232a9f2bf846b383fe2ae830bd433c25316211dc60cd9360405180610c3e34829190602083019252565b0390a2925050610b2c565b63325f6a1b60e21b5f526001600160a01b03166004523460245260445ffd5b80610c765f610c7c93610419565b80610320565b5f610acb565b6040516369b0bb3f60e11b81526001600160a01b0382166004820152602081602481895afa90811561083f575f91610d23575b5015610d0857843b156101a75760405163e6ae806760e01b81526001600160a01b039190911660048201525f8160248183895af1801561083f5715610a985780610c765f610d0293610419565b5f610a98565b63a522783360e01b5f526001600160a01b031660045260245ffd5b610d45915060203d602011610d4b575b610d3d8183610419565b81019061091a565b5f610cb5565b503d610d33565b610d6861017d610d63838686610886565b6108a8565b15610ded57610d7b610d63828585610886565b90610d94610d8a828686610886565b60208101906108b2565b92908a3b156101a7575f91610dbd60405195869384936346d3cc6d60e11b8552600485016108e5565b0381838d5af191821561083f57600192610dd9575b5001610a7f565b80610c765f610de793610419565b5f610dd2565b6378bc317d60e01b5f5260045ffd5b633011642560e01b5f5260045ffd5b63297350bb60e01b5f526001600160a01b03808a166004521660245260445ffd5b63fb38735560e01b5f5260045ffdfe61016080604052346101fb57604081612361803803809161002082856101ff565b8339810103126101fb5761003f602061003883610236565b9201610236565b9060405161004e6040826101ff565b600f815260208101906e125cdbdb185d19591058d8dbdd5b9d608a1b82526040519161007b6040846101ff565b600183526020830191603160f81b83526100948161024a565b610120526100a1846103e0565b61014052519020918260e05251902080610100524660a0526040519060208201927f8b73c3c69bb8fe3d512ecc4cf759cc79239f7b179b0ffacaa9a75d522b39400f8452604083015260608201524660808201523060a082015260a0815261010a60c0826101ff565b5190206080523060c0526001600160a01b03169081156101ec57600280546001600160a01b03199081168417909155600380549091166001600160a01b03929092169182179055604051915f7f8be0079c531659141344cd1fd0a4f28419497f9722a3daafe3b4186f6b6457e08180a37fd2730d56c571c8effcf90410139fb7cb6766fa9419ea7f121628d232adcc8f265f80a2611e489081610519823960805181611b9b015260a05181611c58015260c05181611b65015260e05181611bea01526101005181611c10015261012051816103660152610140518161038f0152f35b63d92e233d60e01b5f5260045ffd5b5f80fd5b601f909101601f19168101906001600160401b0382119082101761022257604052565b634e487b7160e01b5f52604160045260245ffd5b51906001600160a01b03821682036101fb57565b908151602081105f146102c4575090601f815111610284576020815191015160208210610275571790565b5f198260200360031b1b161790565b604460209160405192839163305a27a960e01b83528160048401528051918291826024860152018484015e5f828201840152601f01601f19168101030190fd5b6001600160401b038111610222575f54600181811c911680156103d6575b60208210146103c257601f8111610390575b50602092601f821160011461033157928192935f92610326575b50508160011b915f199060031b1c1916175f5560ff90565b015190505f8061030e565b601f198216935f8052805f20915f5b8681106103785750836001959610610360575b505050811b015f5560ff90565b01515f1960f88460031b161c191690555f8080610353565b91926020600181928685015181550194019201610340565b5f8052601f60205f20910160051c810190601f830160051c015b8181106103b757506102f4565b5f81556001016103aa565b634e487b7160e01b5f52602260045260245ffd5b90607f16906102e2565b908151602081105f1461040b575090601f815111610284576020815191015160208210610275571790565b6001600160401b03811161022257600154600181811c9116801561050e575b60208210146103c257601f81116104db575b50602092601f821160011461047a57928192935f9261046f575b50508160011b915f199060031b1c19161760015560ff90565b015190505f80610456565b601f1982169360015f52805f20915f5b8681106104c357508360019596106104ab575b505050811b0160015560ff90565b01515f1960f88460031b161c191690555f808061049d565b9192602060018192868501518155019401920161048a565b60015f52601f60205f20910160051c810190601f830160051c015b818110610503575061043c565b5f81556001016104f6565b90607f169061042a56fe6080604052600436101561001a575b3615610018575f80fd5b005b5f3560e01c806361b23b7a1461010957806370c109cd1461010457806384b0196e146100ff5780638da5cb5b146100fa5780638da798da146100f55780639b14627d146100f0578063a5432a9f146100eb578063a9c068cf146100e6578063affed0e0146100e1578063d361767e146100dc578063d691c964146100d7578063e6ae8067146100d2578063e9ae5c53146100cd578063f2fde38b146100c85763fdab9ba20361000e57610a42565b6109c9565b61092b565b6108b7565b6107e3565b610715565b6106f8565b610684565b61065c565b610634565b610473565b61044b565b61034e565b6101cc565b610123565b6001600160a01b0381160361011f57565b5f80fd5b3461011f57602036600319011261011f576004356101408161010e565b60018060a01b03165f526007602052602060ff60405f2054166040519015158152f35b9181601f8401121561011f578235916001600160401b03831161011f576020838186019501011161011f57565b90604060031983011261011f576004356101a98161010e565b91602435906001600160401b03821161011f576101c891600401610163565b9091565b3461011f576101da36610190565b600254919290916001600160a01b0316330361030d576001600160a01b0381165f90815260066020526040902061021b90610217905b5460ff1690565b1590565b6102f2576001600160a01b03811692833b1561011f57604051638a91b0e360e01b8152925f9184918291610253919060048401610b1c565b038183875af19081156102ed576102ad9261028a926102d3575b506001600160a01b0381165f908152600660205260409020610294905b805460ff19169055565b6001600160a01b03165f90815260076020526040902090565b7f8542f07efccd0c3cda31b784e4230bb229a0fd4c566cc725db514300e2f6df885f80a2005b806102e15f6102e793610adb565b80610320565b5f61026d565b610b30565b63026d963960e01b5f526001600160a01b031660045260245ffd5b63472511eb60e11b5f523360045260245ffd5b5f91031261011f57565b805180835260209291819084018484015e5f828201840152601f01601f1916010190565b3461011f575f36600319011261011f576103f261038a7f000000000000000000000000000000000000000000000000000000000000000061173c565b6103b37f000000000000000000000000000000000000000000000000000000000000000061181f565b60206040516103c28282610adb565b5f81528161040081830194601f198301368737604051978897600f60f81b895260e0858a015260e089019061032a565b90878203604089015261032a565b914660608701523060808701525f60a087015285830360c087015251918281520192915f5b82811061043457505050500390f35b835185528695509381019392810192600101610425565b3461011f575f36600319011261011f576002546040516001600160a01b039091168152602090f35b3461011f5761048136610190565b6002549192916001600160a01b0316330361030d576001600160a01b038216928315610625576001600160a01b0383165f9081526006602052604090206104c790610210565b61060957833b1561011f576040516306d61fe760e41b8152915f91839182916104f4919060048401610b1c565b038183875af180156102ed576105f5575b5060405163ecd0596160e01b815260026004820152602081602481865afa80156102ed577fa90e32387db790831305e35786fdc1c64cd13beca08ea723d6f890288e6f93689261059a925f926105c4575b506001600160a01b0381165f9081526006602052604090208290610582905b805460ff19166001179055565b61059f575b5060405190151581529081906020820190565b0390a2005b6001600160a01b03165f9081526007602052604090206105be90610575565b5f610587565b6105e791925060203d6020116105ee575b6105df8183610adb565b810190610b5f565b905f610556565b503d6105d5565b806102e15f61060393610adb565b5f610505565b632e21352160e11b5f526001600160a01b03831660045260245ffd5b63d92e233d60e01b5f5260045ffd5b3461011f575f36600319011261011f576004546040516001600160a01b039091168152602090f35b3461011f575f36600319011261011f576003546040516001600160a01b039091168152602090f35b3461011f57602036600319011261011f576004356106a18161010e565b6002546001600160a01b0316330361030d57600380546001600160a01b0319166001600160a01b039290921691821790557fd2730d56c571c8effcf90410139fb7cb6766fa9419ea7f121628d232adcc8f265f80a2005b3461011f575f36600319011261011f576020600554604051908152f35b3461011f57602036600319011261011f576004356107328161010e565b60018060a01b03165f526006602052602060ff60405f2054166040519015158152f35b90604060031983011261011f5760043591602435906001600160401b03821161011f576101c891600401610163565b602081016020825282518091526040820191602060408360051b8301019401925f915b8383106107b657505050505090565b90919293946020806107d4600193603f19868203018752895161032a565b970193019301919392906107a7565b6107ec36610755565b335f52600760205260ff60405f205416156108a4576108a09261088e61089493610817368583610b8e565b602081519101209361082a818386610e75565b60405133917f038271974b5462f7f3ddd8abe5bc7d6c4e4dfc90e7298a4f8051945e99519beb33928061088430948c8c8460a09194935f9360c0830196851984526020840152846040840152606083015260808201520152565b0390a43691610b8e565b906111c3565b60405191829182610784565b0390f35b63170b9abb60e01b5f523360045260245ffd5b3461011f57602036600319011261011f576004356108d48161010e565b6002546001600160a01b0316330361030d57600480546001600160a01b0319166001600160a01b039290921691821790557f70d2ef362d5f4b559a7ca564a79f24a4a8dd4b473effa55123350fea1adae3735f80a2005b61093436610755565b909160018060a01b03600254169182330361030d576100189361088e9161095c368284610b8e565b602081519101209461096f828487610e75565b90604051917f038271974b5462f7f3ddd8abe5bc7d6c4e4dfc90e7298a4f8051945e99519beb33938061088430948c8c8460a09194935f9360c0830196851984526020840152846040840152606083015260808201520152565b3461011f57602036600319011261011f576004356109e68161010e565b600254906001600160a01b038216903382900361030d576001600160a01b0316918215610625576001600160a01b03191682176002557f8be0079c531659141344cd1fd0a4f28419497f9722a3daafe3b4186f6b6457e05f80a3005b60a036600319011261011f576004356024356001600160401b03811161011f57610a70903690600401610163565b9160843591906064356044356001600160401b03851161011f576108a095610a9f610894963690600401610163565b959094610c10565b634e487b7160e01b5f52604160045260245ffd5b606081019081106001600160401b03821117610ad657604052565b610aa7565b90601f801991011681019081106001600160401b03821117610ad657604052565b908060209392818452848401375f828201840152601f01601f1916010190565b916020610b2d938181520191610afc565b90565b6040513d5f823e3d90fd5b6001600160401b038111610ad65760051b60200190565b5190811515820361011f57565b9081602091031261011f57610b2d90610b52565b6001600160401b038111610ad657601f01601f191660200190565b929192610b9a82610b73565b91610ba86040519384610adb565b82948184528183011161011f578281602093845f960137010152565b634e487b7160e01b5f52601160045260245ffd5b9060018201809211610be657565b610bc4565b9060348201809211610be657565b604090610b2d949281528160208201520191610afc565b9293949590919585151580610e6c575b610e5857600554808603610e41575090610cc2610cc892610cba8688610cb2610c4b8d36908b610b8e565b60208151910120610ca48d6040519485936020850197889094939260809260a08301967f983815d6de6c61995fb3b02331a67ac65dc5b81ef15e43b4189006a98647e77a84526020840152604083015260608201520152565b03601f198101835282610adb565b5190206113af565b923691610b8e565b906113d5565b600254610ce5906001600160a01b03165b6001600160a01b031690565b6001600160a01b0382169590861415918280610e2f575b610e1457508180610e01575b610df257610d17368885610b8e565b6020815191012095857f038271974b5462f7f3ddd8abe5bc7d6c4e4dfc90e7298a4f8051945e99519beb84610d4d8b888a610e75565b60408051948552602085018a9052840195909552606083018a9052608083019490945292151560a08201523392309160c090a4610d91610d8c85610bd8565b600555565b610daa57610da490610b2d953691610b8e565b906112d7565b91610b2d9391610da4610dec94610de460405163e9ae5c5360e01b6020820152610ddd81610ca48c868960248501610bf9565b3433611633565b973691610b8e565b916116c5565b638baa579f60e01b5f5260045ffd5b506004546001600160a01b031615610d08565b6333db589d60e01b5f526001600160a01b031660045260245ffd5b50610e3c61021782611474565b610cfc565b6306427aeb60e01b5f52600452602485905260445ffd5b63cd21db4f60e01b5f52600486905260245ffd5b50854211610c20565b9091906001600160f81b0319168015610f9857600160f81b14610e985750505f90565b81019060208183031261011f578035906001600160401b03821161011f570181601f8201121561011f57803590610ece82610b3b565b92610edc6040519485610adb565b82845260208085019360051b8301019181831161011f5760208101935b838510610f095750505050505190565b84356001600160401b03811161011f578201906060828503601f19011261011f5760405191610f3783610abb565b6020810135610f458161010e565b83526040810135602084015260608101356001600160401b03811161011f5760209101019084601f8301121561011f57602092610f888684868096359101610b8e565b6040820152815201940193610ef9565b505050600190565b60408051909190610fb18382610adb565b6001815291601f1901825f5b828110610fc957505050565b806060602080938501015201610fbd565b90610fe482610b3b565b610ff16040519182610adb565b8281528092611002601f1991610b3b565b01905f5b82811061101257505050565b806060602080938501015201611006565b634e487b7160e01b5f52603260045260245ffd5b8051156110445760200190565b611023565b80518210156110445760209160051b010190565b81601f8201121561011f5780519061107482610b73565b926110826040519485610adb565b8284526020838301011161011f57815f9260208093018386015e8301015290565b60208183031261011f578051906001600160401b03821161011f57019080601f8301121561011f578151916110d783610b3b565b926110e56040519485610adb565b80845260208085019160051b8301019183831161011f5760208101915b83831061111157505050505090565b82516001600160401b03811161011f578201906060828703601f19011261011f576040519061113f82610abb565b602083015161114d8161010e565b8252604083015160208301526060830151916001600160401b03831161011f5761117f8860208096958196010161105d565b6040820152815201920191611102565b90926020926034946bffffffffffffffffffffffff199060601b16835260148301528051928391018483015e01015f815290565b6001600160f81b031916919082156112aa57600160f81b83146111fd5763b732147f60e01b5f526001600160f81b0319831660045260245ffd5b611212919250602080825183010191016110a3565b9061121d8251610fda565b915f5b81518110156112a45780611288818561124c61123e60019688611049565b51516001600160a01b031690565b611280602061125b858a611049565b51015191610ca4604061126e878c611049565b5101516040519485936020850161118f565b5f1990611a75565b6112928287611049565b5261129d8186611049565b5001611220565b50505090565b6112b792505f1990611966565b6112bf610fa0565b906112c982611037565b526112d381611037565b5090565b91936001600160f81b0319909216929083156113a157600160f81b84146113155763b732147f60e01b5f526001600160f81b0319841660045260245ffd5b61132b91929350602080825183010191016110a3565b926113368451610fda565b935f5b815181101561139b578061137f81868661135861123e60019789611049565b61137a6020611367868b611049565b51015191610ca4604061126e888d611049565b611a75565b6113898289611049565b526113948188611049565b5001611339565b50505050565b6112b7935093909193611966565b6042906113ba611b62565b906040519161190160f01b8352600283015260228201522090565b610b2d916113e291611c7e565b90929192611cd6565b519065ffffffffffff8216820361011f57565b908160a091031261011f576040519060a082018281106001600160401b03821117610ad65761146c9160809160405280516114388161010e565b8452611446602082016113eb565b6020850152611457604082016113eb565b60408501526060810151606085015201610b52565b608082015290565b6004546001600160a01b0316801561159057611498906001600160a01b0316610cd9565b604051638c8e13b960e01b8152306004820152919060a090839060249082905afa9182156102ed575f9261155f575b5081516001600160a01b0316908115611558576001600160a01b039081169116036115535760808101516115535761151661150b602083015165ffffffffffff1690565b65ffffffffffff1690565b4210611553576040015165ffffffffffff168015159081611540575b5061153c57600190565b5f90565b65ffffffffffff1690504210155f611532565b505f90565b5050505f90565b61158291925060a03d60a011611589575b61157a8183610adb565b8101906113fe565b905f6114c7565b503d611570565b50505f90565b604051906115a5602083610adb565b5f8252565b610b2d939260609260018060a01b031682526020820152816040820152019061032a565b3d156115f8573d906115df82610b73565b916115ed6040519384610adb565b82523d5f602084013e565b606090565b906020610b2d92818152019061032a565b9060208282031261011f5781516001600160401b03811161011f57610b2d920161105d565b6003549192916001600160a01b03169081156116b9575f8094936116738295610ca4604051938492602084019763d68f602560e01b8952602485016115aa565b51925af161167f6115ce565b90156116985780602080610b2d9351830101910161160e565b6040516373b587c360e01b81529081906116b590600483016115fd565b0390fd5b50505050610b2d611596565b6003546001600160a01b0316908115611738575f9182918260405161170681610ca46020820195630b9dfbed60e11b8752602060248401818152019061032a565b51925af16117126115ce565b901561171b5750565b604051632eb1db2d60e11b81529081906116b590600483016115fd565b5050565b60ff811461174d57610b2d90611d52565b506040515f5f548060011c91600182168015611815575b60208410811461180157838552849260208401919081156117e85750600114611795575b50610b2d92500382610adb565b5f80805291507f290decd9548b62a8d60345a988386fc84ba6bc95484008f6362f93160ef3e5635b8483106117d15750610b2d9350015f611788565b8054828401528593506020909201916001016117bd565b60ff1916825250610b2d93151560051b0190505f611788565b634e487b7160e01b5f52602260045260245ffd5b92607f1692611764565b60ff811461183057610b2d90611d52565b506040515f6001548060011c916001821680156118cd575b60208410811461180157838552849260208401919081156117e857506001146118785750610b2d92500382610adb565b60015f90815291507fb10e2d527612073b26eecdfd717e6a320cf44b4afac2b0732d9fcbe2b7fa0cf65b8483106118b65750610b2d9350015f611788565b8054828401528593506020909201916001016118a2565b92607f1692611848565b603319810191908211610be657565b906118f082610b73565b6118fd6040519182610adb565b828152809261190e601f1991610b73565b0190602036910137565b908151811015611044570160200190565b80516020909101516001600160e01b031981169291906004821061194b575050565b6001600160e01b031960049290920360031b82901b16169150565b91906034835110611a6657602083015160601c603484015161198885516118d7565b611991816118e6565b955f5b828110611a2d575050505f8086516020880184865af1946119b36115ce565b9515611a255780517f7fcc11a95d6454b7667353460d3791e5ce17f588379e0c9f3cbcf415f2214201929190600411611a1d576119ef90611929565b905b604080519182526001600160e01b031990921660208201525f9181019190915280606081015b0390a490565b505f906119f1565b855160208701fd5b80611a53611a45611a3f600194610beb565b85611918565b516001600160f81b03191690565b5f1a611a5f828b611918565b5301611994565b6304bc946d60e21b5f5260045ffd5b926034845110611a6657602084015160601c906034850151611a9786516118d7565b611aa0816118e6565b965f5b828110611b3d575050505f8087516020890184875af195611ac26115ce565b9615611b355780517f7fcc11a95d6454b7667353460d3791e5ce17f588379e0c9f3cbcf415f221420193929190600411611b2a57611b02611a1791611929565b925b604051938493846040919493926060820195825263ffffffff60e01b1660208201520152565b50611a175f92611b04565b865160208801fd5b80611b4f611a45611a3f600194610beb565b5f1a611b5b828c611918565b5301611aa3565b307f00000000000000000000000000000000000000000000000000000000000000006001600160a01b03161480611c55575b15611bbd577f000000000000000000000000000000000000000000000000000000000000000090565b60405160208101907f8b73c3c69bb8fe3d512ecc4cf759cc79239f7b179b0ffacaa9a75d522b39400f82527f000000000000000000000000000000000000000000000000000000000000000060408201527f000000000000000000000000000000000000000000000000000000000000000060608201524660808201523060a082015260a08152611c4f60c082610adb565b51902090565b507f00000000000000000000000000000000000000000000000000000000000000004614611b94565b8151919060418303611cae57611ca79250602082015190606060408401519301515f1a90611d90565b9192909190565b50505f9160029190565b60041115611cc257565b634e487b7160e01b5f52602160045260245ffd5b611cdf81611cb8565b80611ce8575050565b611cf181611cb8565b60018103611d085763f645eedf60e01b5f5260045ffd5b611d1181611cb8565b60028103611d2c575063fce698f760e01b5f5260045260245ffd5b80611d38600392611cb8565b14611d405750565b6335e2f38360e21b5f5260045260245ffd5b60ff811690601f8211611d815760405191611d6e604084610adb565b6020808452838101919036833783525290565b632cd44ac360e21b5f5260045ffd5b91907f7fffffffffffffffffffffffffffffff5d576e7357a4501ddfe92f46681b20a08411611e07579160209360809260ff5f9560405194855216868401526040830152606082015282805260015afa156102ed575f516001600160a01b03811615611dfd57905f905f90565b505f906001905f90565b5050505f916003919056fea2646970667358221220da5bfdbc939e9571bcb490c96026529b0c72420d7e8ca8b5d02d682d1404a7df64736f6c634300081b0033a264697066735822122010328be3679c9d9979f92b791f5843a2c98ced9af54ca41a5207c8cf24a1aa0b64736f6c634300081b0033",
  "linkReferences": {},
  "deployedLinkReferences": {}
}