{
  "_format": "hh-sol-artifact-1",
  "contractName": "AbstractAccountFactory",
  "sourceName": "src/factory/AbstractAccountFactory.sol",
  "abi": [
    {
      "inputs": [
        {
          "internalType": "address",
          "name": "agent",
          "type": "address"
        },
        {
          "internalType": "address",
          "name": "existingAccount",
          "type": "address"
        }
      ],
      "name": "AgentAlreadyHasWallet",
      "type": "error"
    },
    {
      "inputs": [
        {
          "internalType": "address",
          "name": "agent",
          "type": "address"
        },
        {
          "internalType": "uint256",
          "name": "amount",
          "type": "uint256"
        }
      ],
      "name": "AgentFundingTransferFailed",
      "type": "error"
    },
    {
      "inputs": [
        {
          "internalType": "address",
          "name": "account",
          "type": "address"
        }
      ],
      "name": "AgentSessionValidatorMissing",
      "type": "error"
    },
    {
      "inputs": [
        {
          "internalType": "address",
          "name": "validator",
          "type": "address"
        }
      ],
      "name": "AgentSessionValidatorNotInstalled",
      "type": "error"
    },
    {
      "inputs": [],
      "name": "DeploymentFailed",
      "type": "error"
    },
    {
      "inputs": [],
      "name": "ZeroAgentAddress",
      "type": "error"
    },
    {
      "inputs": [],
      "name": "ZeroModuleAddress",
      "type": "error"
    },
    {
      "anonymous": false,
      "inputs": [
        {
          "indexed": true,
          "internalType": "address",
          "name": "account",
          "type": "address"
        },
        {
          "indexed": true,
          "internalType": "address",
          "name": "owner",
          "type": "address"
        },
        {
          "indexed": false,
          "internalType": "address",
          "name": "deployer",
          "type": "address"
        },
        {
          "indexed": false,
          "internalType": "bytes32",
          "name": "salt",
          "type": "bytes32"
        },
        {
          "indexed": false,
          "internalType": "address",
          "name": "policyHook",
          "type": "address"
        }
      ],
      "name": "AccountDeployed",
      "type": "event"
    },
    {
      "anonymous": false,
      "inputs": [
        {
          "indexed": true,
          "internalType": "address",
          "name": "agent",
          "type": "address"
        },
        {
          "indexed": false,
          "internalType": "uint256",
          "name": "amount",
          "type": "uint256"
        }
      ],
      "name": "AgentFunded",
      "type": "event"
    },
    {
      "anonymous": false,
      "inputs": [
        {
          "indexed": true,
          "internalType": "address",
          "name": "agent",
          "type": "address"
        },
        {
          "indexed": true,
          "internalType": "address",
          "name": "account",
          "type": "address"
        }
      ],
      "name": "AgentWalletBound",
      "type": "event"
    },
    {
      "anonymous": false,
      "inputs": [
        {
          "indexed": true,
          "internalType": "address",
          "name": "account",
          "type": "address"
        },
        {
          "indexed": true,
          "internalType": "address",
          "name": "oldAgent",
          "type": "address"
        },
        {
          "indexed": true,
          "internalType": "address",
          "name": "newAgent",
          "type": "address"
        }
      ],
      "name": "AgentWalletSynced",
      "type": "event"
    },
    {
      "anonymous": false,
      "inputs": [
        {
          "indexed": true,
          "internalType": "address",
          "name": "agent",
          "type": "address"
        },
        {
          "indexed": true,
          "internalType": "address",
          "name": "account",
          "type": "address"
        }
      ],
      "name": "AgentWalletUnbound",
      "type": "event"
    },
    {
      "anonymous": false,
      "inputs": [
        {
          "indexed": true,
          "internalType": "address",
          "name": "user",
          "type": "address"
        },
        {
          "indexed": true,
          "internalType": "address",
          "name": "account",
          "type": "address"
        }
      ],
      "name": "UserWalletBound",
      "type": "event"
    },
    {
      "inputs": [
        {
          "internalType": "bytes32",
          "name": "salt",
          "type": "bytes32"
        },
        {
          "internalType": "address",
          "name": "policyHook",
          "type": "address"
        },
        {
          "internalType": "address",
          "name": "whitelistModule",
          "type": "address"
        },
        {
          "components": [
            {
              "internalType": "address",
              "name": "module",
              "type": "address"
            },
            {
              "internalType": "bytes",
              "name": "initData",
              "type": "bytes"
            }
          ],
          "internalType": "struct AbstractAccountFactory.ModuleInit[]",
          "name": "modules",
          "type": "tuple[]"
        },
        {
          "internalType": "address",
          "name": "agent",
          "type": "address"
        },
        {
          "internalType": "address",
          "name": "agentSessionValidator",
          "type": "address"
        }
      ],
      "name": "deployAccount",
      "outputs": [
        {
          "internalType": "address",
          "name": "account",
          "type": "address"
        }
      ],
      "stateMutability": "payable",
      "type": "function"
    },
    {
      "inputs": [
        {
          "internalType": "address",
          "name": "account",
          "type": "address"
        }
      ],
      "name": "getAgentByWallet",
      "outputs": [
        {
          "internalType": "address",
          "name": "agent",
          "type": "address"
        }
      ],
      "stateMutability": "view",
      "type": "function"
    },
    {
      "inputs": [
        {
          "internalType": "address",
          "name": "agent",
          "type": "address"
        }
      ],
      "name": "getWalletByAgent",
      "outputs": [
        {
          "internalType": "address",
          "name": "account",
          "type": "address"
        }
      ],
      "stateMutability": "view",
      "type": "function"
    },
    {
      "inputs": [
        {
          "internalType": "address",
          "name": "user",
          "type": "address"
        }
      ],
      "name": "getWalletByUser",
      "outputs": [
        {
          "internalType": "address",
          "name": "account",
          "type": "address"
        }
      ],
      "stateMutability": "view",
      "type": "function"
    },
    {
      "inputs": [
        {
          "internalType": "address",
          "name": "user",
          "type": "address"
        }
      ],
      "name": "getWalletsByUser",
      "outputs": [
        {
          "internalType": "address[]",
          "name": "accounts",
          "type": "address[]"
        }
      ],
      "stateMutability": "view",
      "type": "function"
    },
    {
      "inputs": [
        {
          "internalType": "bytes32",
          "name": "salt",
          "type": "bytes32"
        },
        {
          "internalType": "address",
          "name": "policyHook",
          "type": "address"
        },
        {
          "internalType": "address",
          "name": "whitelistModule",
          "type": "address"
        }
      ],
      "name": "predictAccountAddress",
      "outputs": [
        {
          "internalType": "address",
          "name": "predicted",
          "type": "address"
        }
      ],
      "stateMutability": "view",
      "type": "function"
    },
    {
      "inputs": [],
      "name": "syncAgentWallet",
      "outputs": [],
      "stateMutability": "nonpayable",
      "type": "function"
    }
  ],
  "bytecode": "0x608080604052346015576136a3908161001a8239f35b5f80fdfe60806040526004361015610011575f80fd5b5f3560e01c806321fb757d146100845780632461cccc1461007f5780635f95b3fe1461007a5780637478c8901461007557806385f8dd8d14610070578063926234151461006b57639bb6fe3d14610066575f80fd5b6103df565b6103c5565b610378565b6102ee565b610198565b61015f565b60c036600319011261012e5760043560243561009f81610132565b604435906100ac82610132565b6064359067ffffffffffffffff821161012e573660238301121561012e57816004013567ffffffffffffffff811161012e573660248260051b8501011161012e5761012a94610110946100fd610143565b936024610108610152565b9601926105f2565b6040516001600160a01b0390911681529081906020820190565b0390f35b5f80fd5b6001600160a01b0381160361012e57565b6084359061015082610132565b565b60a4359061015082610132565b3461012e57602036600319011261012e57602061018660043561018181610132565b610ab4565b6040516001600160a01b039091168152f35b3461012e57606036600319011261012e5761012a6101106102a06004356102216102916024356101c781610132565b6102216102496044356101d981610132565b61022f612805946101ec6020870161045c565b95808752610e696020880139604080513060208201526001600160a01b03928316918101919091529216606083015281608081015b03601f198101835282610435565b60405192839161024360208401809761046a565b9061046a565b5190206040516001600160f81b0319602082019081523060601b6bffffffffffffffffffffffff19166021830152603582019590955260558101919091529182906075820190565b5190206001600160a01b031690565b6001600160a01b031690565b60206040818301928281528451809452019201905f5b8181106102cf5750505090565b82516001600160a01b03168452602093840193909201916001016102c2565b3461012e57602036600319011261012e5760043561030b81610132565b60018060a01b03165f52600160205260405f206040519081602082549182815201915f5260205f20905f5b8181106103595761012a8561034d81870382610435565b604051918291826102ac565b82546001600160a01b0316845260209093019260019283019201610336565b3461012e57602036600319011261012e5760043561039581610132565b60018060a01b03165f526002602052602060018060a01b0360405f205416604051908152f35b5f91031261012e57565b3461012e575f36600319011261012e576103dd610bc0565b005b3461012e57602036600319011261012e576004356103fc81610132565b6001600160a01b039081165f9081526020818152604091829020549151919092168152f35b634e487b7160e01b5f52604160045260245ffd5b90601f8019910116810190811067ffffffffffffffff82111761045757604052565b610421565b906101506040519283610435565b805191908290602001825e015f815290565b634e487b7160e01b5f52603260045260245ffd5b91908110156104b25760051b81013590603e198136030182121561012e570190565b61047c565b356104c181610132565b90565b903590601e198136030182121561012e570180359067ffffffffffffffff821161012e5760200191813603831361012e57565b9192606093819260018060a01b0316845260406020850152816040850152848401375f828201840152601f01601f1916010190565b6040513d5f823e3d90fd5b5190811515820361012e57565b9081602091031261012e576104c190610537565b80548210156104b2575f5260205f2001905f90565b8054680100000000000000008110156104575761058f91600182018155610558565b81546001600160a01b0393841660039290921b91821b9390911b1916919091179055565b3d156105ed573d9067ffffffffffffffff821161045757604051916105e2601f8201601f191660200184610435565b82523d5f602084013e565b606090565b949695929490936001600160a01b0388169391928415610aa5576001600160a01b0389165f908152602081905260409020610635905b546001600160a01b031690565b6001600160a01b038116610a845750836106af916106bd61022161069b612805936106626020860161045c565b94808652610e696020870139604080513060208201526001600160a01b03808f1692820192909252911660608201529182906080820190565b60405194859161024360208401809661046a565b03601f198101855284610435565b91516001600160a01b03925ff516958615610a75575f5b8281106109cb575050506001600160a01b0381166108fb575b50833b1561012e5760405163f2fde38b60e01b8152336004820152925f8460248183895af19384156108f65785946108dc575b50839661075f856107408360018060a01b03165f525f60205260405f2090565b80546001600160a01b0319166001600160a01b03909216919091179055565b6001600160a01b0385165f908152600260205260409020610781908290610740565b335f90815260016020526040902061079a90869061056d565b34610838575b50604080513380825260208201949094526001600160a01b039092169082015283907fedc5bf4254fe8b113712e3aea7713d913b04e918749d01f6c997e506a41715159080606081015b0390a37f16f8473c77294faa8396e68254ea4a7adcbc796a0e7260ec5ad2ab8a289273115f80a3337fe3b133fd84c60e2e0a1afd20a13975a98357b547b6e202b5c1530016697e26455f80a3565b90919293505f80808034855af161084d6105b3565b50156108bd575090837fedc5bf4254fe8b113712e3aea7713d913b04e918749d01f6c997e506a41715156107ea859483967f1a325fd86785b579f3232a9f2bf846b383fe2ae830bd433c25316211dc60cd93604051806108b234829190602083019252565b0390a29250506107a0565b63325f6a1b60e21b5f526001600160a01b03166004523460245260445ffd5b806108ea5f6108f093610435565b806103bb565b5f610720565b61052c565b6040516369b0bb3f60e11b81526001600160a01b0382166004820152602081602481895afa9081156108f6575f9161099c575b501561098157843b1561012e5760405163e6ae806760e01b81526001600160a01b039190911660048201525f8160248183895af180156108f657156106ed57806108ea5f61097b93610435565b5f6106ed565b63a522783360e01b5f526001600160a01b031660045260245ffd5b6109be915060203d6020116109c4575b6109b68183610435565b810190610544565b5f61092e565b503d6109ac565b6109e16102a06109dc838686610490565b6104b7565b15610a66576109f46109dc828585610490565b90610a0d610a03828686610490565b60208101906104c4565b92908a3b1561012e575f91610a3660405195869384936346d3cc6d60e11b8552600485016104f7565b0381838d5af19182156108f657600192610a52575b50016106d4565b806108ea5f610a6093610435565b5f610a4b565b6378bc317d60e01b5f5260045ffd5b633011642560e01b5f5260045ffd5b63297350bb60e01b5f526001600160a01b03808b166004521660245260445ffd5b63fb38735560e01b5f5260045ffd5b6001600160a01b03165f81815260016020526040902054908115610b1b575f52600160205260405f20905f198101908111610b0757610af291610558565b905460039190911b1c6001600160a01b031690565b634e487b7160e01b5f52601160045260245ffd5b50505f90565b9081602091031261012e57516104c181610132565b519065ffffffffffff8216820361012e57565b908160a091031261012e576040519060a0820182811067ffffffffffffffff82111761045757610bb8916080916040528051610b8481610132565b8452610b9260208201610b36565b6020850152610ba360408201610b36565b60408501526060810151606085015201610537565b608082015290565b604051639b14627d60e01b8152602081600481335afa9081156108f6575f91610e39575b506001600160a01b03168015610e2657604051638c8e13b960e01b81523360048201529060a090829060249082905afa9081156108f6575f91610df7575b50608081015115610de857505f5b335f908152600260205260409020610c4790610628565b6001600160a01b038281169290821691828414610de25782151580610db6575b610d66575b5082610cb2575b335f908152600260205260409020610c8b9190610740565b337fab6c4386164aefed619b581da38c8f5e16983b3bc12a6145e03a164032e24b065f80a4565b6001600160a01b0381165f908152602081905260409020610cd290610628565b6001600160a01b0381168015159081610d5b575b50610d3a5750610c8b90610d0d336107408360018060a01b03165f525f60205260405f2090565b33847f16f8473c77294faa8396e68254ea4a7adcbc796a0e7260ec5ad2ab8a289273115f80a39050610c73565b63297350bb60e01b5f526001600160a01b039182166004521660245260445ffd5b90503314155f610ce6565b6001600160a01b03165f90815260208190526040902080546001600160a01b031916905533827f2c1f593bde93018bccda2c02d767b2453f3e07c3a53802ae4ae02c3969bb66205f80a35f610c6c565b506001600160a01b038181165f908152602081905260409020339190610ddb90610628565b1614610c67565b50505050565b516001600160a01b0316610c30565b610e19915060a03d60a011610e1f575b610e118183610435565b810190610b49565b5f610c22565b503d610e07565b6365e7c42960e01b5f523360045260245ffd5b610e5b915060203d602011610e61575b610e538183610435565b810190610b21565b5f610be4565b503d610e4956fe610160806040523461023a576060816128058038038091610020828561023e565b83398101031261023a5761003381610275565b61004b604061004460208501610275565b9301610275565b9060405161005a60408261023e565b600f815260208101906e125cdbdb185d19591058d8dbdd5b9d608a1b82526040519161008760408461023e565b600183526020830191603160f81b83526100a081610289565b610120526100ad8461041f565b61014052519020918260e05251902080610100524660a0526040519060208201927f8b73c3c69bb8fe3d512ecc4cf759cc79239f7b179b0ffacaa9a75d522b39400f8452604083015260608201524660808201523060a082015260a0815261011660c08261023e565b5190206080523060c0526001600160a01b031691821561022b57600280546001600160a01b031990811685179091556003805482166001600160a01b0393841690811790915560058054909216939092169283179055604051925f7f8be0079c531659141344cd1fd0a4f28419497f9722a3daafe3b4186f6b6457e08180a37fd2730d56c571c8effcf90410139fb7cb6766fa9419ea7f121628d232adcc8f265f80a27f27b997b04d713eb9577b9c1409174efb8558111a6505d8e76d9fe1e28946d4555f80a26122ad9081610558823960805181611fe0015260a0518161209d015260c05181611faa015260e0518161202f015261010051816120550152610120518161074b015261014051816107740152f35b63d92e233d60e01b5f5260045ffd5b5f80fd5b601f909101601f19168101906001600160401b0382119082101761026157604052565b634e487b7160e01b5f52604160045260245ffd5b51906001600160a01b038216820361023a57565b908151602081105f14610303575090601f8151116102c35760208151910151602082106102b4571790565b5f198260200360031b1b161790565b604460209160405192839163305a27a960e01b83528160048401528051918291826024860152018484015e5f828201840152601f01601f19168101030190fd5b6001600160401b038111610261575f54600181811c91168015610415575b602082101461040157601f81116103cf575b50602092601f821160011461037057928192935f92610365575b50508160011b915f199060031b1c1916175f5560ff90565b015190505f8061034d565b601f198216935f8052805f20915f5b8681106103b7575083600195961061039f575b505050811b015f5560ff90565b01515f1960f88460031b161c191690555f8080610392565b9192602060018192868501518155019401920161037f565b5f8052601f60205f20910160051c810190601f830160051c015b8181106103f65750610333565b5f81556001016103e9565b634e487b7160e01b5f52602260045260245ffd5b90607f1690610321565b908151602081105f1461044a575090601f8151116102c35760208151910151602082106102b4571790565b6001600160401b03811161026157600154600181811c9116801561054d575b602082101461040157601f811161051a575b50602092601f82116001146104b957928192935f926104ae575b50508160011b915f199060031b1c19161760015560ff90565b015190505f80610495565b601f1982169360015f52805f20915f5b86811061050257508360019596106104ea575b505050811b0160015560ff90565b01515f1960f88460031b161c191690555f80806104dc565b919260206001819286850151815501940192016104c9565b60015f52601f60205f20910160051c810190601f830160051c015b818110610542575061047b565b5f8155600101610535565b90607f169061046956fe6080604052600436101561001a575b3615610018575f80fd5b005b5f3560e01c80631cd51559146101795780633091e7191461017457806361b23b7a1461016f5780636e77fcfb1461016a57806370c109cd14610165578063764c2aeb1461016057806383f26f381461015b57806384b0196e146101565780638da5cb5b146101515780638da798da1461014c5780638fea31b0146101475780639b14627d14610142578063a5432a9f1461013d578063a9c068cf14610138578063aa0e5cd214610133578063affed0e01461012e578063d361767e14610129578063d691c96414610124578063e6ae80671461011f578063e9ae5c531461011a578063f2fde38b146101155763fdab9ba20361000e57610e73565b610dfa565b610d6f565b610cfb565b610c50565b610c10565b610bf3565b610b05565b610a91565b610a69565b610a41565b610a19565b610858565b610830565b610733565b6106b5565b610653565b610521565b610485565b610445565b61036d565b610265565b9181601f840112156101ab578235916001600160401b0383116101ab57602083818601950101116101ab57565b5f80fd5b9060406003198301126101ab5760043591602435906001600160401b0382116101ab576101de9160040161017e565b9091565b805180835260209291819084018484015e5f828201840152601f01601f1916010190565b602081016020825282518091526040820191602060408360051b8301019401925f915b83831061023857505050505090565b9091929394602080610256600193603f1986820301875289516101e2565b97019301930191939290610229565b61026e366101af565b9061027f61027b33611343565b1590565b61035a5761034461034a916103569461033e61029c368785610f48565b60208151910120926102af878285611465565b60405133915f5160206122585f395f51905f523392806102f730948b8b8460a091949360019360c08301965f19845260208401525f6040840152606083015260808201520152565b0390a460405163e9ae5c5360e01b60208201526103369061032f816103218b868960248501610f9e565b03601f198101835282610f0c565b3433611673565b963691610f48565b906118e2565b91611ace565b60405191829182610206565b0390f35b6333db589d60e01b5f523360045260245ffd5b346101ab5760203660031901126101ab576004356002546001600160a01b03163303610421576005546001600160a01b0316908115610412576003546001600160a01b0316823b156101ab576040516317808bbf60e31b815260048101929092526001600160a01b03166024820152905f908290818381604481015b03925af1801561040d576103f957005b806104075f61001893610f0c565b80610729565b610fb8565b632d4fd30560e01b5f5260045ffd5b63472511eb60e11b5f523360045260245ffd5b6001600160a01b038116036101ab57565b346101ab5760203660031901126101ab5760043561046281610434565b60018060a01b03165f526008602052602060ff60405f2054166040519015158152f35b346101ab5760203660031901126101ab576004356002546001600160a01b03163303610421576005546001600160a01b0316801561041257803b156101ab57604051632d7788db60e01b815260048101839052905f908290818381602481016103e9565b9060406003198301126101ab5760043561050281610434565b91602435906001600160401b0382116101ab576101de9160040161017e565b346101ab5761052f366104e9565b600254919290916001600160a01b03163303610421576001600160a01b0381165f90815260076020526040902061056c9061027b905b5460ff1690565b610638576001600160a01b03811692833b156101ab57604051638a91b0e360e01b8152925f91849182916105a4919060048401610fc3565b038183875af190811561040d576105fe926105db92610624575b506001600160a01b0381165f9081526007602052604090206105e5905b805460ff19169055565b6001600160a01b03165f90815260086020526040902090565b7f8542f07efccd0c3cda31b784e4230bb229a0fd4c566cc725db514300e2f6df885f80a2005b806104075f61063293610f0c565b5f6105be565b63026d963960e01b5f526001600160a01b031660045260245ffd5b346101ab5760203660031901126101ab5760043561067361027b33611343565b61035a576005546001600160a01b0316801561041257803b156101ab57604051630c054e5360e21b815260048101839052905f908290818381602481016103e9565b346101ab5760203660031901126101ab576004356106d281610434565b6002546001600160a01b0316330361042157600580546001600160a01b0319166001600160a01b039290921691821790557f27b997b04d713eb9577b9c1409174efb8558111a6505d8e76d9fe1e28946d4555f80a2005b5f9103126101ab57565b346101ab575f3660031901126101ab576107d761076f7f0000000000000000000000000000000000000000000000000000000000000000611e0c565b6107987f0000000000000000000000000000000000000000000000000000000000000000611eef565b60206040516107a78282610f0c565b5f8152816107e581830194601f198301368737604051978897600f60f81b895260e0858a015260e08901906101e2565b9087820360408901526101e2565b914660608701523060808701525f60a087015285830360c087015251918281520192915f5b82811061081957505050500390f35b83518552869550938101939281019260010161080a565b346101ab575f3660031901126101ab576002546040516001600160a01b039091168152602090f35b346101ab57610866366104e9565b6002549192916001600160a01b03163303610421576001600160a01b038216928315610a0a576001600160a01b0383165f9081526007602052604090206108ac90610565565b6109ee57833b156101ab576040516306d61fe760e41b8152915f91839182916108d9919060048401610fc3565b038183875af1801561040d576109da575b5060405163ecd0596160e01b815260026004820152602081602481865afa801561040d577fa90e32387db790831305e35786fdc1c64cd13beca08ea723d6f890288e6f93689261097f925f926109a9575b506001600160a01b0381165f9081526007602052604090208290610967905b805460ff19166001179055565b610984575b5060405190151581529081906020820190565b0390a2005b6001600160a01b03165f9081526008602052604090206109a39061095a565b5f61096c565b6109cc91925060203d6020116109d3575b6109c48183610f0c565b810190610ff8565b905f61093b565b503d6109ba565b806104075f6109e893610f0c565b5f6108ea565b632e21352160e11b5f526001600160a01b03831660045260245ffd5b63d92e233d60e01b5f5260045ffd5b346101ab575f3660031901126101ab576005546040516001600160a01b039091168152602090f35b346101ab575f3660031901126101ab576004546040516001600160a01b039091168152602090f35b346101ab575f3660031901126101ab576003546040516001600160a01b039091168152602090f35b346101ab5760203660031901126101ab57600435610aae81610434565b6002546001600160a01b0316330361042157600380546001600160a01b0319166001600160a01b039290921691821790557fd2730d56c571c8effcf90410139fb7cb6766fa9419ea7f121628d232adcc8f265f80a2005b346101ab5760603660031901126101ab57600435610b2281610434565b602435906001600160e01b0319821682036101ab576044356001600160401b0381116101ab57610b5690369060040161017e565b92610b6361027b33611343565b61035a576005546001600160a01b0316908115610412575f602094610b9e604051978896879586946338618e1160e01b86526004860161101b565b03925af1801561040d57610356915f91610bc4575b506040519081529081906020820190565b610be6915060203d602011610bec575b610bde8183610f0c565b81019061100c565b5f610bb3565b503d610bd4565b346101ab575f3660031901126101ab576020600654604051908152f35b346101ab5760203660031901126101ab57600435610c2d81610434565b60018060a01b03165f526007602052602060ff60405f2054166040519015158152f35b610c59366101af565b335f52600860205260ff60405f20541615610ce8576103569261033e61034a93610c84368583610f48565b6020815191012093610c97818386611465565b60405133915f5160206122585f395f51905f52339280610cde30948c8c8460a09194935f9360c0830196851984526020840152846040840152606083015260808201520152565b0390a43691610f48565b63170b9abb60e01b5f523360045260245ffd5b346101ab5760203660031901126101ab57600435610d1881610434565b6002546001600160a01b0316330361042157600480546001600160a01b0319166001600160a01b039290921691821790557f70d2ef362d5f4b559a7ca564a79f24a4a8dd4b473effa55123350fea1adae3735f80a2005b610d78366101af565b909160018060a01b036002541691823303610421576100189361033e91610da0368284610f48565b6020815191012094610db3828487611465565b90604051915f5160206122585f395f51905f52339380610cde30948c8c8460a09194935f9360c0830196851984526020840152846040840152606083015260808201520152565b346101ab5760203660031901126101ab57600435610e1781610434565b600254906001600160a01b0382169033829003610421576001600160a01b0316918215610a0a576001600160a01b03191682176002557f8be0079c531659141344cd1fd0a4f28419497f9722a3daafe3b4186f6b6457e05f80a3005b60a03660031901126101ab576004356024356001600160401b0381116101ab57610ea190369060040161017e565b9160843591906064356044356001600160401b0385116101ab5761035695610ed061034a96369060040161017e565b959094611083565b634e487b7160e01b5f52604160045260245ffd5b606081019081106001600160401b03821117610f0757604052565b610ed8565b90601f801991011681019081106001600160401b03821117610f0757604052565b6001600160401b038111610f0757601f01601f191660200190565b929192610f5482610f2d565b91610f626040519384610f0c565b8294818452818301116101ab578281602093845f960137010152565b908060209392818452848401375f828201840152601f01601f1916010190565b604090610fb5949281528160208201520191610f7e565b90565b6040513d5f823e3d90fd5b916020610fb5938181520191610f7e565b6001600160401b038111610f075760051b60200190565b519081151582036101ab57565b908160209103126101ab57610fb590610feb565b908160209103126101ab575190565b6001600160a01b0390911681526001600160e01b03199091166020820152606060408201819052610fb593910191610f7e565b634e487b7160e01b5f52601160045260245ffd5b906001820180921161107057565b61104e565b906034820180921161107057565b92939495909195851515806112b1575b61129d5760065480860361128657509061112761112d9261111f86886111176110be8d36908b610f48565b602081519101206103218d6040519485936020850197889094939260809260a08301967f983815d6de6c61995fb3b02331a67ac65dc5b81ef15e43b4189006a98647e77a84526020840152604083015260608201520152565b519020611b45565b923691610f48565b90611b6b565b60025461114a906001600160a01b03165b6001600160a01b031690565b6001600160a01b0382169590861415918280611274575b61125957508180611246575b6112375761117c368885610f48565b6020815191012095855f5160206122585f395f51905f528461119f8b888a611465565b60408051948552602085018a9052840195909552606083018a9052608083019490945292151560a08201523392309160c090a46111e36111de85611062565b600655565b6111fc576111f690610fb5953691610f48565b906119f6565b91610fb593916111f66103449461122f60405163e9ae5c5360e01b602082015261032f816103218c868960248501610f9e565b973691610f48565b638baa579f60e01b5f5260045ffd5b506004546001600160a01b03161561116d565b6333db589d60e01b5f526001600160a01b031660045260245ffd5b5061128161027b82611343565b611161565b6306427aeb60e01b5f52600452602485905260445ffd5b63cd21db4f60e01b5f52600486905260245ffd5b50854211611093565b519065ffffffffffff821682036101ab57565b908160a09103126101ab576040519060a082018281106001600160401b03821117610f075761133b91608091604052805161130781610434565b8452611315602082016112ba565b6020850152611326604082016112ba565b60408501526060810151606085015201610feb565b608082015290565b6004546001600160a01b0316801561145f57611367906001600160a01b031661113e565b604051638c8e13b960e01b8152306004820152919060a090839060249082905afa91821561040d575f9261142e575b5081516001600160a01b0316908115611427576001600160a01b03908116911603611422576080810151611422576113e56113da602083015165ffffffffffff1690565b65ffffffffffff1690565b4210611422576040015165ffffffffffff16801515908161140f575b5061140b57600190565b5f90565b65ffffffffffff1690504210155f611401565b505f90565b5050505f90565b61145191925060a03d60a011611458575b6114498183610f0c565b8101906112cd565b905f611396565b503d61143f565b50505f90565b9091906001600160f81b031916801561158857600160f81b146114885750505f90565b8101906020818303126101ab578035906001600160401b0382116101ab570181601f820112156101ab578035906114be82610fd4565b926114cc6040519485610f0c565b82845260208085019360051b830101918183116101ab5760208101935b8385106114f95750505050505190565b84356001600160401b0381116101ab578201906060828503601f1901126101ab576040519161152783610eec565b602081013561153581610434565b83526040810135602084015260608101356001600160401b0381116101ab5760209101019084601f830112156101ab576020926115788684868096359101610f48565b60408201528152019401936114e9565b505050600190565b6040519061159f602083610f0c565b5f8252565b610fb5939260609260018060a01b03168252602082015281604082015201906101e2565b3d156115f2573d906115d982610f2d565b916115e76040519384610f0c565b82523d5f602084013e565b606090565b906020610fb59281815201906101e2565b81601f820112156101ab5780519061161f82610f2d565b9261162d6040519485610f0c565b828452602083830101116101ab57815f9260208093018386015e8301015290565b906020828203126101ab5781516001600160401b0381116101ab57610fb59201611608565b6003549192916001600160a01b03169081156116f9575f8094936116b38295610321604051938492602084019763d68f602560e01b8952602485016115a4565b51925af16116bf6115c8565b90156116d85780602080610fb59351830101910161164e565b6040516373b587c360e01b81529081906116f590600483016115f7565b0390fd5b50505050610fb5611590565b604080519091906117168382610f0c565b6001815291601f1901825f5b82811061172e57505050565b806060602080938501015201611722565b9061174982610fd4565b6117566040519182610f0c565b8281528092611767601f1991610fd4565b01905f5b82811061177757505050565b80606060208093850101520161176b565b634e487b7160e01b5f52603260045260245ffd5b8051156117a95760200190565b611788565b80518210156117a95760209160051b010190565b6020818303126101ab578051906001600160401b0382116101ab57019080601f830112156101ab578151916117f683610fd4565b926118046040519485610f0c565b80845260208085019160051b830101918383116101ab5760208101915b83831061183057505050505090565b82516001600160401b0381116101ab578201906060828703601f1901126101ab576040519061185e82610eec565b602083015161186c81610434565b8252604083015160208301526060830151916001600160401b0383116101ab5761189e88602080969581960101611608565b6040820152815201920191611821565b90926020926034946bffffffffffffffffffffffff199060601b16835260148301528051928391018483015e01015f815290565b6001600160f81b031916919082156119c957600160f81b831461191c5763b732147f60e01b5f526001600160f81b0319831660045260245ffd5b611931919250602080825183010191016117c2565b9061193c825161173f565b915f5b81518110156119c357806119a7818561196b61195d600196886117ae565b51516001600160a01b031690565b61199f602061197a858a6117ae565b51015191610321604061198d878c6117ae565b510151604051948593602085016118ae565b5f1990611d1f565b6119b182876117ae565b526119bc81866117ae565b500161193f565b50505090565b6119d692505f1990611c10565b6119de611705565b906119e88261179c565b526119f28161179c565b5090565b91936001600160f81b031990921692908315611ac057600160f81b8414611a345763b732147f60e01b5f526001600160f81b0319841660045260245ffd5b611a4a91929350602080825183010191016117c2565b92611a55845161173f565b935f5b8151811015611aba5780611a9e818686611a7761195d600197896117ae565b611a996020611a86868b6117ae565b51015191610321604061198d888d6117ae565b611d1f565b611aa882896117ae565b52611ab381886117ae565b5001611a58565b50505050565b6119d6935093909193611c10565b6003546001600160a01b0316908115611b41575f91829182604051611b0f816103216020820195630b9dfbed60e11b875260206024840181815201906101e2565b51925af1611b1b6115c8565b9015611b245750565b604051632eb1db2d60e11b81529081906116f590600483016115f7565b5050565b604290611b50611fa7565b906040519161190160f01b8352600283015260228201522090565b610fb591611b78916120c3565b9092919261211b565b60331981019190821161107057565b90611b9a82610f2d565b611ba76040519182610f0c565b8281528092611bb8601f1991610f2d565b0190602036910137565b9081518110156117a9570160200190565b80516020909101516001600160e01b0319811692919060048210611bf5575050565b6001600160e01b031960049290920360031b82901b16169150565b91906034835110611d1057602083015160601c6034840151611c328551611b81565b611c3b81611b90565b955f5b828110611cd7575050505f8086516020880184865af194611c5d6115c8565b9515611ccf5780517f7fcc11a95d6454b7667353460d3791e5ce17f588379e0c9f3cbcf415f2214201929190600411611cc757611c9990611bd3565b905b604080519182526001600160e01b031990921660208201525f9181019190915280606081015b0390a490565b505f90611c9b565b855160208701fd5b80611cfd611cef611ce9600194611075565b85611bc2565b516001600160f81b03191690565b5f1a611d09828b611bc2565b5301611c3e565b6304bc946d60e21b5f5260045ffd5b926034845110611d1057602084015160601c906034850151611d418651611b81565b611d4a81611b90565b965f5b828110611de7575050505f8087516020890184875af195611d6c6115c8565b9615611ddf5780517f7fcc11a95d6454b7667353460d3791e5ce17f588379e0c9f3cbcf415f221420193929190600411611dd457611dac611cc191611bd3565b925b604051938493846040919493926060820195825263ffffffff60e01b1660208201520152565b50611cc15f92611dae565b865160208801fd5b80611df9611cef611ce9600194611075565b5f1a611e05828c611bc2565b5301611d4d565b60ff8114611e1d57610fb590612197565b506040515f5f548060011c91600182168015611ee5575b602084108114611ed15783855284926020840191908115611eb85750600114611e65575b50610fb592500382610f0c565b5f80805291507f290decd9548b62a8d60345a988386fc84ba6bc95484008f6362f93160ef3e5635b848310611ea15750610fb59350015f611e58565b805482840152859350602090920191600101611e8d565b60ff1916825250610fb593151560051b0190505f611e58565b634e487b7160e01b5f52602260045260245ffd5b92607f1692611e34565b60ff8114611f0057610fb590612197565b506040515f6001548060011c91600182168015611f9d575b602084108114611ed15783855284926020840191908115611eb85750600114611f485750610fb592500382610f0c565b60015f90815291507fb10e2d527612073b26eecdfd717e6a320cf44b4afac2b0732d9fcbe2b7fa0cf65b848310611f865750610fb59350015f611e58565b805482840152859350602090920191600101611f72565b92607f1692611f18565b307f00000000000000000000000000000000000000000000000000000000000000006001600160a01b0316148061209a575b15612002577f000000000000000000000000000000000000000000000000000000000000000090565b60405160208101907f8b73c3c69bb8fe3d512ecc4cf759cc79239f7b179b0ffacaa9a75d522b39400f82527f000000000000000000000000000000000000000000000000000000000000000060408201527f000000000000000000000000000000000000000000000000000000000000000060608201524660808201523060a082015260a0815261209460c082610f0c565b51902090565b507f00000000000000000000000000000000000000000000000000000000000000004614611fd9565b81519190604183036120f3576120ec9250602082015190606060408401519301515f1a906121d5565b9192909190565b50505f9160029190565b6004111561210757565b634e487b7160e01b5f52602160045260245ffd5b612124816120fd565b8061212d575050565b612136816120fd565b6001810361214d5763f645eedf60e01b5f5260045ffd5b612156816120fd565b60028103612171575063fce698f760e01b5f5260045260245ffd5b8061217d6003926120fd565b146121855750565b6335e2f38360e21b5f5260045260245ffd5b60ff811690601f82116121c657604051916121b3604084610f0c565b6020808452838101919036833783525290565b632cd44ac360e21b5f5260045ffd5b91907f7fffffffffffffffffffffffffffffff5d576e7357a4501ddfe92f46681b20a0841161224c579160209360809260ff5f9560405194855216868401526040830152606082015282805260015afa1561040d575f516001600160a01b0381161561224257905f905f90565b505f906001905f90565b5050505f916003919056fe038271974b5462f7f3ddd8abe5bc7d6c4e4dfc90e7298a4f8051945e99519beba264697066735822122039dfd78f925092cfda51feddd89fb244aa88013fa8a5f832ca6171e550edffc064736f6c634300081b0033a26469706673582212205135e3339ede8a5086a072b6ba6403cd8c6ea3e4cabc3c3d632479724291c1f964736f6c634300081b0033",
  "linkReferences": {},
  "deployedLinkReferences": {}
}